:020000040800F2
:10000000600600206D0100087501000877010008F6
:10001000790100087B0100087D0100080000000054
:100020000000000000000000000000007F01000848
:10003000810100080000000083010008850100081C
:100040008701000887010008870100088701000870
:100050008701000887010008870100088701000860
:100060008701000887010008870100088701000850
:100070008701000887010008870100088701000840
:100080008701000887010008870100088701000830
:100090008701000887010008870100088701000820
:1000A0008701000887010008870100088701000810
:1000B0008701000887010008870100088701000800
:1000C00087010008870100088701000887010008F0
:1000D00087010008870100088701000887010008E0
:1000E00087010008870100088701000800F002F876
:1000F00000F02CF80AA090E8000C82448344AAF196
:100100000107DA4501D100F021F8AFF2090EBAE893
:100110000F0013F0010F18BFFB1A43F0010318473B
:100120005402000064020000002300240025002681
:10013000103A28BF78C1FBD8520728BF30C148BF4A
:100140000B6070471FB51FBD10B510BD00F031F832
:100150001146FFF7F7FF00F0F8F800F04FF803B48E
:10016000FFF7F2FF03BC00F057F800000948804792
:1001700009480047FEE7FEE7FEE7FEE7FEE7FEE789
:10018000FEE7FEE7FEE7FEE704480549054A064BA1
:100190007047000049030008ED00000860000020DF
:1001A0006006002060020020600200207047704757
:1001B0007047754600F02CF8AE4605006946534678
:1001C00020F00700854618B020B5FFF7DDFFBDE839
:1001D00020404FF000064FF000074FF000084FF0AE
:1001E000000B21F00701AC46ACE8C009ACE8C0093F
:1001F000ACE8C009ACE8C0098D46704710B50446AC
:10020000AFF300802046BDE81040FFF7A8BF000014
:10021000004870470000002001491820ABBEFEE7EF
:1002200026000200704700001F4A126842F4803224
:100230001D4B1A6000BF1C4A126802F40032002AEB
:10024000F9D0194A526842F48062174B5A60174A33
:10025000126842F00202154B1A60134A526842F4C7
:100260008032114B5A60821ED0B21A46526842EA5E
:1002700080425A601A46126842F080721A6000BFCB
:10028000094A126802F00072002AF9D0064A526840
:1002900042F00202044B5A6000BF034A526802F067
:1002A0000C010829F9D170470010024000200240DB
:1002B000014600224FF0E0239A614FF47A724A43DC
:1002C0005A611A46126942F001021A6100BF4FF0EA
:1002D000E022106900F001021AB100F48032002A15
:1002E000F5D04FF0E022126922F001024FF0E02336
:1002F0001A6100229A617047012806D10649C9682F
:1003000041F40051044AD16005E020B90249C968AE
:100310000021014AD16070470010014008488069FF
:1003200040F01000064988610648406820F47000DB
:10033000044948600846406840F4401048607047EF
:10034000001002400010014070470920FFF76CFFC9
:10035000FFF7E4FF0DE00020FFF7CEFF42F2283068
:10036000FFF7A6FF0120FFF7C7FF42F22830FFF793
:100370009FFFF0E7840300080000002060060000F3
:040380002801000848
:04000005080000ED02
:00000001FF
