:020000040800F2
:10000000600600206D0100087501000877010008F6
:10001000790100087B0100087D0100080000000054
:100020000000000000000000000000007F01000848
:10003000810100080000000083010008850100081C
:100040008701000887010008870100088701000870
:100050008701000887010008870100088701000860
:100060008701000887010008870100088701000850
:100070008701000887010008870100088701000840
:100080008701000887010008870100088701000830
:100090008701000887010008870100088701000820
:1000A0008701000887010008870100088701000810
:1000B0008701000887010008870100088701000800
:1000C00087010008870100088701000887010008F0
:1000D00087010008870100088701000887010008E0
:1000E00087010008870100088701000800F002F876
:1000F00000F02CF80AA090E8000C82448344AAF196
:100100000107DA4501D100F021F8AFF2090EBAE893
:100110000F0013F0010F18BFFB1A43F0010318473B
:10012000FC0100000C020000002300240025002632
:10013000103A28BF78C1FBD8520728BF30C148BF4A
:100140000B6070471FB51FBD10B510BD00F031F832
:100150001146FFF7F7FF00F0C9F800F04FF803B4BD
:10016000FFF7F2FF03BC00F057F800000948804792
:1001700009480047FEE7FEE7FEE7FEE7FEE7FEE789
:10018000FEE7FEE7FEE7FEE704480549054A064BA1
:1001900070470000C9020008ED0000086000002060
:1001A0006006002060020020600200207047704757
:1001B0007047754600F02CF8AE4605006946534678
:1001C00020F00700854618B020B5FFF7DDFFBDE839
:1001D00020404FF000064FF000074FF000084FF0AE
:1001E000000B21F00701AC46ACE8C009ACE8C0093F
:1001F000ACE8C009ACE8C0098D46704710B50446AC
:10020000AFF300802046BDE81040FFF7A8BF000014
:10021000004870470000002001491820ABBEFEE7EF
:1002200026000200704700000848806940F0040082
:10023000064988610648006820F470400449086057
:100240000846006840F440500860704700100240C3
:1002500000080140012806D10649096841F008015B
:10026000044A116005E020B9024909680021014AE9
:10027000116070470C0801400848806940F0100088
:10028000064988610648406820F4700004494860C7
:100290000846406840F44010486070470010024033
:1002A00000100140012806D10649C96841F40051F7
:1002B000044AD16005E020B90249C9680021014A19
:1002C000D1607047001001407047002007E0002116
:1002D00001E05200491CB1F57A7FFADB401CB0F511
:1002E0007A7FF4DB0020002100227047FFF79CFF9B
:1002F000FFF7C2FF11E00120FFF7ACFF0020FFF77E
:10030000D1FFFFF7E2FF0020FFF7A4FF0120FFF776
:10031000C9FFFFF7DAFFFFF7D8FFECE72C0300086F
:0C0320000000002060060000280100081A
:04000005080000ED02
:00000001FF
