:020000040800F2
:10000000B8040020010100082F0F0008DD0D0008D2
:100010002D0F00086D01000879180008000000008D
:10002000000000000000000000000000F9100008BF
:100030006F01000800000000310F0008FB100008ED
:100040001B0100081B0100081B0100081B01000820
:100050001B0100081B0100081B0100081B01000810
:100060001B0100081B0100081B0100081B01000800
:100070001B0100081B0100081B0100081B010008F0
:100080001B0100081B0100081B0100081B010008E0
:100090001B0100081B0100081B0100081B010008D0
:1000A0001B0100081B0100081B0100081B010008C0
:1000B0001B0100081B0100081B0100081B010008B0
:1000C0001B0100081B0100081B010008350F000878
:1000D0001B0100081B0100081B0100081B01000890
:1000E0001B0100081B0100081B010008DFF80CD0F1
:1000F00000F02AF800480047B9180008B8040020AA
:100100000648804706480047FEE7FEE7FEE7FEE7B1
:10011000FEE7FEE7FEE7FEE7FEE7FEE75D1100080B
:10012000ED000008D2B201E000F8012B491EFBD21D
:1001300070470022F6E710B513460A4604461946F2
:10014000FFF7F0FF204610BD064C074D06E0E068C3
:1001500040F0010394E8070098471034AC42F6D30E
:10016000FFF7C8FF8CBF0008ACBF0008FEE7704770
:1001700072B6FEE710B590F821100024022903D0D2
:100180000421816301243DE001680A6822F00E0227
:100190000A6001680A6822F001020A601A4A0168CE
:1001A000914201D1012121E0174A1432914201D13B
:1001B00010211BE0144A2832914201D1891515E023
:1001C000114A3C32914201D189140FE00E4A50325B
:1001D000914202D14FF4803108E00B4A64329142DF
:1001E00002D14FF4801101E04FF08071064A083AC5
:1001F0005160012180F82110002180F82010416B0E
:1002000001B18847204610BD0800024070B5044681
:1002100000F004F90546601C02D00448007804444C
:1002200000F0FCF8401BA042FAD370BD040000208F
:100230002DE9F84FDFF8B8910024A9F1040B23460B
:100240000F2709F1040AABF1040EC9E00125A5400E
:100250002A40AA427DD1674ED1F804C0ACEB060813
:10026000B44532D014DCBCF1030F3AD009DCBCF148
:10027000000F2AD0BCF1010F1CD0BCF1020F31D10C
:100280001DE0BCF1110F17D0BCF1120F2AD119E0FB
:10029000B8F5881F19D006DCB8F5803F15D0B8F541
:1002A000801F1FD111E0B8F5001F0ED0B8F5041F54
:1002B00018D10AE0CB6815E0CB681B1D12E0CB68B3
:1002C00008330FE0CB680C330CE08B682BB1012BAB
:1002D0004FF0080303D0456104E0042302E0056108
:1002E00000E00023FF2A01D8064601E000F10406E1
:1002F0004FEA840501D9A5F12005D6F8008007FA58
:1003000005FC28EA0C0803FA05F548EA0508C6F8D2
:1003100000804D68ED0062D5374DAE6946F00106AC
:10032000AE61AD6924F0030605F001050095334D7B
:1003300006EB050CDCF80850A607360F07FA06F89E
:1003400025EA0805DFF8B880404503D14FF00008E2
:1003500017E044E0DFF8AC80404502D14FF00108DF
:100360000FE0DFF8A480404502D14FF0020808E01A
:10037000DFF89880404502D14FF0030801E04FF0CC
:10038000040808FA06F848EA0508CCF808804D6821
:10039000D9F80060ED024D4601D5164300E09643C2
:1003A0002E604D68DAF80060AD02554601D516435F
:1003B00000E096432E604D68DBF80060AD035D46BB
:1003C00001D5164300E096432E604D68DEF80060CC
:1003D000ED03754601D5164300E096432E60641C7C
:1003E0000D682A46E5407FF431AFBDE8F88F000084
:1003F00008040140000011100010024000000140FC
:1004000000080140000C01400010014000140140B0
:100410000AB1016170470904FBE7000001488068E8
:1004200070470000040000200248816802781144EF
:100430008160704704000020074810B5016841F052
:1004400010010160032000F075F80F2000F006F89D
:1004500000F024F8002010BD0020024070B50D4DC2
:1004600004464FF47A712878B1FBF0F00A49096824
:10047000B1FBF0F000F033FC48B9102C07D2002299
:100480002146501E00F036F800206C6070BD01203F
:1004900070BD000004000020000000200C4808B5DA
:1004A000816941F001018161816901F001010091DF
:1004B000C16941F08051C161C06900F08050009075
:1004C0000448416821F0E06141F00071416008BDDD
:1004D0000010024000000140002809DB00F01F026C
:1004E000012191404009800000F1E020C0F8001196
:1004F00070470000F0B40E4B1B680C46C3F3022398
:10050000C3F10705042D00D90425191D072901D2BF
:10051000002300E0DB1E012606FA05F1491E2140FA
:1005200099409E40761E16403143F0BC01F0A5B9BB
:100530000CED00E0064900F0070208684FF6FF03E3
:10054000184040EA0220034A104308607047000048
:100550000CED00E00000FA052DE9F0470F4605001C
:1005600061D0434E306800F00700B84209D23068CD
:1005700020F0070038433060306800F00700B842D0
:1005800051D128683B4C810712D5400703D56068DC
:1005900040F4E06060602878000703D5606840F4AC
:1005A000605060606068A96820F0F00008436060F7
:1005B0002878C00728D06868012810D02168022850
:1005C00010D0890700292EDA616821F00301014368
:1005D0006160FFF723FF804641F288390DE0216812
:1005E0008903EFE78901EDE7FFF718FFA0EB0801AA
:1005F000494502D90320BDE8F0876068696800F0CA
:100600000C00B0EB810FEFD1306800F00700B8426A
:100610000BD9306820F0070038433060306800F0B4
:100620000700B84201D00120E5E72878400705D54A
:100630006068E96820F4E06008436060287800079B
:1006400006D56068296920F4605040EAC100606006
:1006500000F038F86168084AC1F30311515CC840E2
:100660000649086006480068FFF7F8FE0020C2E768
:100670000020024000100240D618000800000020B0
:10068000080000200448054900684968044AC1F38D
:100690000221515CC8407047000000200010024059
:1006A000E61800080448054900684968044AC1F38F
:1006B000C221515CC8407047000000200010024079
:1006C000E61800080E4A51680E4801F00C03042B8E
:1006D00011D0082B0FD10C48C1F38343C903C05C70
:1006E0000AD55168084AC1F34041921E515C054A3F
:1006F0005043B0FBF1F07047044948437047000095
:100700000010024000127A00F018000800093D00B5
:100710002DE9F84F040070D02078C04DC00749D0B3
:100720006868C0F38100012807D06868C0F38100C1
:10073000022809D16868C00306D52868800339D526
:1007400060680028E7D035E06068B0F5803F0BD0E6
:1007500010B1B0F5A02F11D0286820F480302860A7
:10076000286820F4802002E0286840F48030286067
:10077000606890B1FFF752FE06460AE0286840F430
:1007800080202860F0E700BFFFF748FE801B642848
:1007900073D828688003F7D50CE0FFF73FFE0646C4
:1007A00005E000BFFFF73AFE801B6428F0D82868F8
:1007B0008003F7D420789A4E80074FF001094FF05C
:1007C000000839D5686810F00C0F07D06868C0F3CE
:1007D0008100022809D16868C00306D42868800710
:1007E00014D52069012808D110E02069B0B1C6F8FD
:1007F0000090FFF713FE074605E00AE1FFF70EFE43
:10080000C01B0228C4D828688007F7D5286861690A
:1008100020F0F80040EAC10028600DE0C6F8008032
:10082000FFF7FCFD074604E0FFF7F8FDC01B0228B8
:1008300023D828688007F7D4207800072CD579487A
:10084000A169D9B1C0F80090FFF7E8FD074604E0C0
:10085000FFF7E4FDC01B02280FD8686A8007F7D5B0
:1008600071484FF4FA510068B0FBF1F0009000BFFE
:100870000098411E0091FAD20EE080E0C0F800809E
:10088000FFF7CCFD074604E0FFF7C8FDC01B0228B8
:1008900075D8686A8007F7D42078400760D5E86982
:1008A0000027C00008D4E86940F08050E861E8699A
:1008B000012700F0805000905C480168C90513D4FE
:1008C0000168834641F480710160FFF7A7FD82460D
:1008D00006E000BFFFF7A2FDA0EB0A0064284ED897
:1008E000DBF80000C005F5D5E06801280AD008B1A2
:1008F000052813D0286A20F001002862286A20F019
:10090000040002E0286A40F001002862E06841F239
:10091000883B98B1FFF782FD82460BE0286A40F0E1
:1009200004002862EEE700BFFFF778FDA0EB0A01A4
:1009300059455AD8286A8007F6D50CE0FFF76EFDB6
:10094000824605E0FFF76AFDA0EB0A0159454CD845
:10095000286A8007F6D41FB1E86920F08050E8616A
:10096000E06988B36968C1F38101022944D0022893
:10097000C6F8608004D0FFF751FD044638E034E04B
:10098000FFF74CFD074604E0FFF748FDC01B0228B7
:100990002BD828688001F7D4206AB0F5803F05D1B4
:1009A0006868A16820F4003008436860D4E9080151
:1009B0000843696821F4741108436860C6F86090C0
:1009C000FFF72CFD044606E025E000BFFFF726FDFB
:1009D000001B022809D828688001F7D51BE000BF5A
:1009E000FFF71CFD001B022802D90320BDE8F88F89
:1009F00028688001F4D40EE00128F7D06868226AE4
:100A000000F48031914204D1616A00F47010884290
:100A100001D00120EAE70020E8E7000000100240D2
:100A2000000042428004424200000020007000406A
:100A3000704790F85100704738B504460068426826
:100A40008168C9434B0606D5CB0704D1D3435B0667
:100A500001D4216C05E08B0708D4D3431B0605D4D1
:100A6000616C01B02046BDE8304008478B0601D5D7
:100A70004B0646D4D3439B0643D44B060AD494F882
:100A80005130032B3ED0636D43F004036365C368AC
:100A900083680093890609D4616D41F001016165A5
:100AA00081680091016821F040010160606D0028BB
:100AB00027D02068416821F0E0014160012084F8DE
:100AC0005100900722D02068416821F00301416065
:100AD000104DE06C40B14563E06CFFF74BFB18B183
:100AE000606D40F040006065A06C002809D045634F
:100AF000A06CFFF73FFB002803D0606D40F0400082
:100B0000606538BDC1688068009038BD2046FFF739
:100B10008FFF38BDBD0F000870B5040009D0606AB2
:100B2000002540B125616561A56294F8510040B18E
:100B30000CE0012070BD6068B0F5827FF4D0E56103
:100B4000F2E784F85050204600F040F8022084F884
:100B500051002068016821F040010160A0882189CE
:100B600000F4827001F404410843A18901F400619A
:100B70000843217C01F002010843217D01F00101BD
:100B80000843218B01F400710843217F01F03801F3
:100B9000084394F8201001F080010843218D01F4EE
:100BA0000051084321680860A069042101EA10404F
:100BB000216848602068C16921F40061C1616565F0
:100BC000012084F85100002070BD000030B585B0D0
:100BD0000024009401940294039400681849884208
:100BE0002BD11848816941F480518161816901F4F8
:100BF00080510491816941F0040181618069124D45
:100C000000F004000490A020009002200190032036
:100C1000039069462846FFF70BFB4020CDE900040E
:100C2000694628460294FFF703FB00221146232061
:100C3000FFF760FC2320FFF74FFC05B030BD00003C
:100C400000300140001002400008014029B122B1EB
:100C500090F85130012B19D101E00120704790F834
:100C60005030012B12D0012380F85030032380F83C
:100C700051300023436501638286C2868363838784
:100C8000C3870364C16819B1124902E002207047AA
:100C9000114941648168B1F5004F09D101680A68C2
:100CA00022F040020A6001680A6842F480420A6049
:100CB00001680A68520603D40A6842F040020A60DA
:100CC00080F850300068416841F0A0014160002088
:100CD000704700000110000821100008704710B58F
:100CE000401EB0F1807F01D3012010BD4FF0E02401
:100CF00060610F21601700F0C0FD0020A061072097
:100D00002061002010BD70B5040004D094F84100AB
:100D1000002510B106E0012070BD84F84050204647
:100D200000F024F8242084F841002068C16821F4F0
:100D30000051C160204600F043FD2068016921F4A4
:100D4000904101612068416921F02A0141612068D8
:100D5000C16841F40051C1606564202084F84100FD
:100D600084F842006563002070BD000030B585B096
:100D7000002400940194029403940068144988426A
:100D800024D11448816941F480418161816901F471
:100D900080410491816941F00401816180690E4DB7
:100DA00000F0040004904FF40070009002200190C5
:100DB0000320039069462846FFF73AFA2815CDE943
:100DC0000004694628460294FFF732FA05B030BDA8
:100DD000003801400010024000080140FEE700001A
:100DE0002DE9F04385B000242C480094019402942E
:100DF0000394816941F010018161816901F0100162
:100E00000491816941F020018161816901F0200133
:100E10000491816941F004018161816901F004015B
:100E20000491816941F00801816180691C4F00F0E3
:100E300008004FF400550490002229463846FFF779
:100E4000E7FADFF86080002210214046FFF7E0FA61
:100E5000DFF85490002203214846FFF7D9FA0095A5
:100E6000022601250396CDE9015469463846FFF76D
:100E7000DFF91020CDE90005CDE90246694640467C
:100E8000FFF7D6F90320CDE90005CDE90246694612
:100E90004846FFF7CDF905B0BDE8F08300100240E9
:100EA0000010014000080140000C0140104810B53E
:100EB0000E4901604FF48271416000218160C16080
:100EC0004FF400720161C0E905121822C0E9072140
:100ED000416281620A21C162FFF71EFE002803D031
:100EE000BDE81040FFF744B910BD000000300140DC
:100EF000180000200C4810B50A4901604FF4E13198
:100F00004160002181600C22C160C0E9041281614E
:100F1000C161FFF7F8FE002803D0BDE81040FFF7DD
:100F200027B910BD0038014070000020FEE7FEE741
:100F3000704700000148FFF77FBD00001800002047
:100F400038B504461C4845F6C0510068B0FBF1F0C6
:100F5000642148430090FFF761FA02462068009937
:100F6000A1B1491E009181688907F8D5416821F037
:100F7000A00141606421204600F028F818B1606D9E
:100F800040F020006065A06828B108E0616D41F084
:100F900020016165EAE72068C1688068009001204F
:100FA00084F85100606D0028204602D0FFF740FD14
:100FB00038BDFFF793FE38BD0000002010B5406A31
:100FC0000021C187C186FFF733FD10BDF8B5154676
:100FD0000E460B46009204460122022100F030F832
:100FE00040B93346002280212046009500F028F8C1
:100FF000002804D0606D40F0200060650320F8BD3B
:10100000016B02680988D160016B891C0163C18E84
:10101000491EC186C18E002901D1FFF791BF7047DB
:10102000016B026809781173016B491C0163C18E61
:10103000491EC186C18E002901D1FFF781BF7047CB
:101040002DE9F8431E46914688460446089DFFF761
:10105000E5F9401B351AFFF7E1F907462548006816
:10106000C0F3CB30684338E0701C37D0FFF7D6F9B7
:10107000C01BA84203D215B1009860B32CE02068D1
:10108000416821F0E00141606068B0F5827F0BD1DA
:10109000A068B0F5004F02D0B0F5806F04D1206891
:1010A000016821F040010160A06AB0F5005F09D13C
:1010B0002068016821F4005101602068016841F452
:1010C00000510160012084F85100002084F8500094
:1010D0000320BDE8F8830025401E00902068816849
:1010E00038EA010004D000214945BDD10020F0E7D5
:1010F0000121F9E7000000207047FFF795B930B5EE
:101100008FB028216846FFF714F814210AA8FFF7CA
:1011100010F801210804CDE90010002402940225F2
:101120000491CDE907504FF4E01009906846FFF7AD
:10113000EFFA08B172B6FEE70F20CDE90A054FF4C9
:101140008060CDE90C4002210AA80E94FFF704FA52
:10115000002801D072B6FEE70FB030BD70472DE910
:10116000F04107461C4615460E462A2000F0FEFABE
:10117000380A00F0F8FAF8B200F0F5FA280A00F0A0
:10118000F2FAE8B200F0EFFA2B2000F0EFFA300AA2
:1011900000F0E9FAF0B200F0E6FA200A00F0E3FA13
:1011A000E0B200F0E0FABDE8F0412C2000F0DEBA39
:1011B00070B5104C0021A088401E83B26088401E8C
:1011C00082B20846FFF7CBFF00260EE0002507E0BD
:1011D000002000F0C8FA002000F0C5FA6D1CADB286
:1011E000A088A842F4D8761CB6B26088B042EDD888
:1011F00070BD000012000020064808B500780128E4
:1012000007D1054878233C2100901A46084600F093
:1012100082FA08BD10000020044F000810B51449E0
:10122000F02278B1012814D0022819D003281ED149
:101230004A808A80362000F099FAA820BDE8104044
:1012400000F091BA4A808A80362000F08FFA082098
:10125000F4E74A808A80362000F088FA6820EDE7BB
:101260004A808A80362000F081FAC820E6E710BD67
:101270001200002070B5FE4C0020FE4D207002468A
:1012800002212846FFF7C4F80A20FEF7BFFF01221B
:1012900002212846FFF7BCF87820FEF7B7FFEF20C1
:1012A00000F064FAEB2000F061FA142000F05BFA21
:1012B000FE2000F05BFAEF2000F058FAEB2000F07F
:1012C00055FA142000F04FFA842000F04FFA402025
:1012D00000F049FA852000F049FAFF2000F043FAB7
:1012E000862000F043FAFF2000F03DFA872000F04E
:1012F0003DFAFF2000F037FA882000F037FA0A2084
:1013000000F031FA892000F031FA212000F02BFAA8
:101310008A2000F02BFA002000F025FA8B2000F044
:1013200025FA802000F01FFA8C2000F01FFA01201F
:1013300000F019FA8D2000F019FA012000F013FADC
:101340008E2000F013FAFF2000F00DFA8F2000F03D
:101350000DFAFF2000F007FAB62000F007FA00208F
:1013600000F001FA202000F0FEF9362000F0FEF92E
:10137000082000F0F8F93A2000F0F8F9052000F014
:10138000F2F9902000F0F2F9082000F0ECF90820C2
:1013900000F0E9F9082000F0E6F9082000F0E3F990
:1013A000BD2000F0E3F9062000F0DDF9BC2000F0DC
:1013B000DDF9002000F0D7F9FF2000F0D7F9602018
:1013C00000F0D1F9012000F0CEF9042000F0CBF9B3
:1013D000C32000F0CBF9132000F0C5F9C42000F0C1
:1013E000C5F9132000F0BFF9C92000F0BFF9222091
:1013F00000F0B9F9BE2000F0B9F9112000F0B3F9FE
:10140000E12000F0B3F9102000F0ADF90E2000F05B
:10141000AAF9DF2000F0AAF9212000F0A4F90C209D
:1014200000F0A1F9022000F09EF9F02000F09EF9F2
:10143000452000F098F9092000F095F9082000F007
:1014400092F9082000F08FF9262000F08CF92A206C
:1014500000F089F9F12000F089F9432000F083F9C8
:10146000702000F080F9722000F07DF9362000F045
:101470007AF9372000F077F96F2000F074F9F22044
:1014800000F074F9452000F06EF9092000F06BF9C6
:10149000082000F068F9082000F065F9262000F027
:1014A00062F92A2000F05FF9F32000F05FF9432091
:1014B00000F059F9702000F056F9722000F053F94D
:1014C000362000F050F9372000F04DF96F2000F081
:1014D0004AF9ED2000F04AF91B2000F044F90B20F6
:1014E00000F041F9AE2000F041F9772000F03BF91F
:1014F000CD2000F03BF9632000F035F9702000F0BA
:1015000035F9072000F02FF9072000F02CF904200E
:1015100000F029F90E2000F026F90F2000F023F941
:10152000092000F020F9072000F01DF9082000F044
:101530001AF9032000F017F9E82000F017F9342019
:1015400000F011F9622000F011F9182000F00BF9F9
:101550000D2000F008F9712000F005F9ED2000F0F1
:1015600002F9702000F0FFF8702000F0FCF818205D
:1015700000F0F9F80F2000F0F6F8712000F0F3F811
:10158000EF2000F0F0F8702000F0EDF8702000F08F
:10159000EAF8632000F0EAF8182000F0E4F81120DF
:1015A00000F0E1F8712000F0DEF8F12000F0DBF847
:1015B000702000F0D8F8702000F0D5F8182000F066
:1015C000D2F8132000F0CFF8712000F0CCF8F3200F
:1015D00000F0C9F8702000F0C6F8702000F0C3F8E1
:1015E000642000F0C3F8282000F0BDF8292000F0A6
:1015F000BAF8F12000F0B7F8012000F0B4F8F120BB
:1016000000F0B1F8002000F0AEF8072000F0ABF8D1
:10161000662000F0ABF83C2000F0A5F8002000F0B8
:10162000A2F8CD2000F09FF8672000F09CF845203C
:1016300000F099F8452000F096F8102000F093F89B
:10164000002000F090F8002000F08DF8002000F05D
:101650008AF8672000F08AF8002000F084F83C2027
:1016600000F081F8002000F07EF8002004E0000087
:1016700010000020000C014000F075F8002000F080
:1016800072F8012000F06FF8542000F06CF8102080
:1016900000F069F8322000F066F8982000F063F856
:1016A000742000F063F8102000F05DF8852000F051
:1016B0005AF8802000F057F8002000F054F800207D
:1016C00000F051F84E2000F04EF8002000F04BF8EA
:1016D000982000F04BF83E2000F045F8072000F07D
:1016E00042F8342000F042F8212000F03FF81120A9
:1016F00000F03CF87820FEF789FD0020FFF78EFD12
:10170000FFF756FD292000F031F81420FEF77EFD8A
:101710000120207070BD2DE9F0471F469046CA1980
:10172000521E93B200EB0802521E002592B2DDF861
:101730002090FFF714FD002611E000240BE019F8BB
:10174000150000F010F809EB4500407800F00BF8A8
:10175000641CA4B26D1CBC42F1D3761CB6B24645E3
:10176000EBD3BDE8F087012100F004B8002100F0C0
:1017700001B8000073B50C460E48FFF75AF901286E
:1017800017D10D4D002210212846FEF741FE0CB165
:10179000012200E0002201210848FEF739FE012263
:1017A00069460448FFF752FA012210212846FEF745
:1017B0002FFE7CBD1800002000080140000C0140F5
:1017C00070B5044600680169E26821F44051114394
:1017D00001612169A0680843616908432168CA68FA
:1017E00041F20C639A430243CA6020684169A269CE
:1017F00021F44071114341611E492068884202D1A1
:10180000FEF750FF01E0FEF73DFF00EBC00101EBEA
:101810000012606864218000B2FBF0F3B3FBF1F3C7
:101820006FF018067343B2FBF0F5B2FBF0F605EB70
:101830008305322303EB0515B5FBF1F5B6FBF1F695
:1018400005F0F00505EB0615B2FBF0F6B2FBF0F083
:10185000B0FBF1F06FF01802504306EB800003EB91
:101860000010B0FBF1F0216800F00F002844886000
:1018700070BD000000380140FEE70907090E00288E
:1018800004DB00F1E02080F80014704700F00F0046
:1018900000F1E02080F8141D704702E008C8121F14
:1018A00008C1002AFAD170477047002001E001C149
:1018B000121F002AFBD17047FEF7BEFDFFF71FFC89
:1018C000FFF78EFAFFF7F2FAFFF714FBFFF7D2FCEF
:1018D000FFF792FCFCE7000000000000000001029E
:1018E00003040607080900000000010203040102C6
:1018F00002030405060708090A0B0C0D0E0F101051
:1019000000000000000000000000000000000404CF
:10191000040404000004000014140A000000000085
:101920000000000000000A0A1F0A0A1F0A0A00003D
:1019300000040E1505060C14150E04000000121507
:101940000D152E2C2A1200000000040A0A36151567
:101950002916000002020100000000000000000043
:101960001008080404040404080810000204040811
:10197000080808080404020000000004150E0E15F3
:101980000400000000000008083E080800000000F5
:101990000000000000000000020201000000000042
:1019A000003F0000000000000000000000000000F8
:1019B00000020000002010100808040402020100C8
:1019C00000000E1111111111110E0000000004068B
:1019D00004040404040E000000000E1111080402A7
:1019E000011F000000000E11100C1010110E00005D
:1019F0000000080C0C0A091F081C000000001F0151
:101A0000010F1110110E000000000C12010D131136
:101A1000110E000000001E10080804040404000059
:101A200000000E11110E1111110E000000000E1118
:101A30001119161009060000000000000400000043
:101A40000004000000000000000400000004040086
:101A5000000010080402020408100000000000004A
:101A60003F003F00000000000000020408101008C2
:101A70000402000000000E1111080404000400001C
:101A800000001C22292D2D1D221C00000000040432
:101A90000C0A0A1E1233000000000F12120E12125E
:101AA000120F000000001E1101010101110E0000C3
:101AB00000000F1212121212120F000000001F126B
:101AC0000A0E0A02121F000000001F120A0E0A026C
:101AD0000207000000001C1201013911120C000065
:101AE00000003312121E12121233000000001F04F5
:101AF00004040404041F000000003E08080808084D
:101B000008080907000037120A060A1212370000F7
:101B10000000070202020202223F000000003B1BFD
:101B20001B1B15151535000000003B1216161A1A5E
:101B30001217000000000E1111111111110E0000FA
:101B400000000F12120E02020207000000000E1128
:101B500011111117190E180000000F12120E0A129F
:101B60001237000000001E1101060810110F0000BE
:101B700000001F1504040404040E000000003312CA
:101B800012121212120C000000003312120A0A0C78
:101B9000040400000000151515150E0A0A0A0000BD
:101BA00000001B0A0A04040A0A1B000000001B0AAA
:101BB0000A0A0404040E000000001F0908040402BD
:101BC000121F00001C0404040404040404041C0088
:101BD0000002020404040808081010000E08080897
:101BE0000808080808080E00040A000000000000A9
:101BF0000000000000000000000000000000003FA6
:101C000002040000000000000000000000000000CE
:101C1000000C121C123C000000030202020E121201
:101C2000120E000000000000001C1202120C000046
:101C300000181010101C1212123C000000000000CE
:101C4000000C121E021C000000182404041E0404D0
:101C5000041E000000000000003C120C021C221CAC
:101C600000030202020E12121237000000040400E8
:101C700000060404040E000000080800000C080818
:101C80000808080700030202021A0A060A130000E5
:101C90000007040404040404041F00000000000002
:101CA000000F15151515000000000000000F12129E
:101CB0001237000000000000000C1212120C00008D
:101CC00000000000000F1212120E020700000000B8
:101CD000001C1212121C103800000000001B06022B
:101CE0000207000000000000001E020C101E000091
:101CF00000000004041E0404041C00000000000096
:101D0000001B1212123C000000000000001B0A0A17
:101D100004040000000000000015150E0A0A00006F
:101D200000000000001B0A040A1B00000000000065
:101D3000003312120C08040300000000001E080407
:101D4000041E000018080808080C080808081800F5
:101D50000808080808080808080808080604040411
:101D60000408040404040600160900000000000032
:101D70000000000000000000000000000000000063
:101D8000000000000000000808080808080800001B
:101D90001818000000486C24120000000000000029
:101DA000000000000000002424247F1212127F1281
:101DB000121200000000081C2A2A0A0C1828282ADF
:101DC0002A1C080800000022251515152A5854540D
:101DD000542200000000000C1212120A762529116C
:101DE000916E0000000606040300000000000000E1
:101DF0000000000000402010100808080808081023
:101E000010204000000204080810101010101008E4
:101E1000080402000000000008086B1C1C6B080886
:101E20000000000000000000080808087F080808FB
:101E3000080000000000000000000000000000009A
:101E4000060604030000000000000000FE00000081
:101E50000000000000000000000000000000000082
:101E600006060000000080404020201010080804F2
:101E70000402020000000018244242424242424250
:101E800024180000000000080E08080808080808C8
:101E9000083E00000000003C42424220201008049E
:101EA000427E00000000003C424220182040404298
:101EB000221C0000000000203028242422227E2042
:101EC000207800000000007E0202021A26404042F4
:101ED000221C0000000000382402021A264242425E
:101EE000241800000000007E2222101008080808B4
:101EF000080800000000003C4242422418244242EC
:101F0000423C000000000018244242426458404015
:101F1000241C000000000000000018180000000051
:101F20001818000000000000000000080000000079
:101F300000080804000000402010080402040810F3
:101F4000204000000000000000007F0000007F0033
:101F500000000000000000020408102040201008CB
:101F6000040200000000003C4242464020101000E5
:101F7000181800000000001C225A555555552D42D6
:101F8000221C00000000000808181414243C2242FF
:101F900042E700000000001F2222221E224242428D
:101FA000221F00000000007C4242010101010142A9
:101FB000221C00000000001F2242424242424242D4
:101FC000221F00000000003F4212121E12120242A5
:101FD000423F00000000003F4212121E1212020295
:101FE000020700000000003C2222010101712122B1
:101FF000221C0000000000E7424242427E42424270
:1020000042E700000000003E080808080808080829
:10201000083E00000000007C10101010101010107E
:102020001010110F0000007722120A0E0A1212225D
:1020300022770000000000070202020202020202F0
:10204000427F000000000077363636362A2A2A2AD8
:102050002A6B0000000000E346464A4A5252526290
:10206000624700000000001C2241414141414141C2
:10207000221C00000000003F424242423E02020297
:10208000020700000000001C2241414141414D5324
:10209000321C60000000003F4242423E12122222E7
:1020A00042C700000000007C424202041820404267
:1020B000423E00000000007F4908080808080808A0
:1020C000081C0000000000E74242424242424242F5
:1020D000423C0000000000E742422224241414186D
:1020E000080800000000006B49494949555536224F
:1020F00022220000000000E742242418181824249B
:1021000042E70000000000772222141408080808A3
:10211000081C00000000007E21201010080404426A
:10212000423F000000780808080808080808080866
:1021300008087800000002020404080808101020B3
:1021400020204040001E1010101010101010101011
:1021500010101E00003844000000000000000000C5
:10216000000000000000000000000000000000006F
:10217000000000FF00060800000000000000000052
:1021800000000000000000000000003C42784442D3
:1021900042FC0000000000030202021A26424242F2
:1021A000261A00000000000000000038440202026D
:1021B0004438000000000060404040784442424201
:1021C00064D80000000000000000003C427E0202D3
:1021D000423C0000000000F08808087E080808085B
:1021E000083E0000000000000000007C22221C02CB
:1021F0003C42423C000000030202023A4642424294
:1022000042E700000000000C0C00000E080808085F
:10221000083E000000000030300000382020202060
:102220002020221E0000000302020272120A16126F
:10223000227700000000000E0808080808080808B7
:10224000083E0000000000000000007F9292929281
:1022500092B70000000000000000003B46424242EE
:1022600042E70000000000000000003C4242424201
:10227000423C0000000000000000001B26424242D9
:10228000221E020700000000000000784442424283
:10229000447840E000000000000000774C04040493
:1022A000041F0000000000000000007C42023C40CF
:1022B000423E0000000000000008083E0808080830
:1022C000083000000000000000000063424242426B
:1022D00062DC000000000000000000E7422424143B
:1022E0000808000000000000000000EB49495555B7
:1022F00022220000000000000000007624181818B8
:10230000246E000000000000000000E742242414B6
:1023100018080807000000000000007E22100808CE
:10232000447E000000C020202020201020202020FB
:102330002020C000101010101010101010101010DD
:1023400010101010000608080808081008080808EF
:10235000080806000C32C200000000000000000067
:10236000000000000000000000000000000000006D
:10237000000000000000000000000000000000005D
:10238000000000000000000000000000000000004D
:10239000000000000000000000000000600060007D
:1023A00060006000600060006000400020002000CD
:1023B00020000000000000006000600060000000DD
:1023C0000000000000000000600660063003980175
:1023D0008800440000000000000000000000000031
:1023E00000000000000000000000000000000000ED
:1023F00000000000000000000000000010021002B9
:1024000010021002FE07FE07080208010801080179
:102410000801FE07FE070401040104010401000095
:102420000000000000000000000040004000F0013B
:1024300058034C03CC034C0058007000E000C0016E
:10244000C00140034C035C034C034801F000400012
:102450004000000000000000000000000E010A0122
:10246000910091009100510051003A00AE03A0028A
:1024700050045004480448044804840284030000C3
:1024800000000000000000000000000038006C00A8
:102490006C006C006C006C002C0098071C011A0189
:1024A000330133016301E300C308C6093C070000A0
:1024B00000000000000000000C001C0010001000D4
:1024C0000800040000000000000000000000000000
:1024D00000000000000000000000000000000000FC
:1024E0000000000000000000000400020001800065
:1024F000800040004000200020002000200020003C
:102500002000200040004000800080000001000208
:102510000004000000000000020004000800100099
:10252000100020002000400040004000400040001B
:1025300040004000200020001000100008000400AF
:102540000200000000000000000000000000000089
:102550004000C0004000460C4E0FD001F0015E0F5D
:10256000460C400040004000000000000000000059
:10257000000000000000000000000000000000005B
:10258000000040004000400040004000FE0F4000BE
:10259000400040004000400000000000000000003B
:1025A000000000000000000000000000000000002B
:1025B000000000000000000000000000000000001B
:1025C00000000000000000000C001C0010001000C3
:1025D00008000400000000000000000000000000EF
:1025E000000000000000000000000000FE070000E6
:1025F00000000000000000000000000000000000DB
:1026000000000000000000000000000000000000CA
:1026100000000000000000000000000000000000BA
:1026200000000000000000001C001C001C00000056
:10263000000000000000000000040006000200038B
:102640000001000180008000400040006000200088
:10265000200010001000080008000C000400060014
:102660000200000000000000000000000000F00078
:1026700098010C030C030606060606060606060667
:102680000606060606060C030C039801F00000007F
:1026900000000000000000000000000000004000FA
:1026A0007C0060006000600060006000600060000E
:1026B000600060006000600060006000FC030000DB
:1026C0000000000000000000000000000000F80012
:1026D0008401020306030603000300018001C00019
:1026E000600020001000080204020602FE03000041
:1026F0000000000000000000000000000000780062
:10270000C6008601860180018001C0007000800142
:10271000000100030003060306038601F800000021
:102720000000000000000000000000000000800128
:102730008001C001A001A0019001880188018401ED
:102740008201FE0F8001800180018001E00700000E
:102750000000000000000000000000000000FC037A
:1027600004000400040004000400F4008C010403CD
:10277000000300030603060382018401F800000041
:102780000000000000000000000000000000E00168
:1027900018030C030C0004000600E60116030E06E5
:1027A00006060606060604060C021803F0000000E2
:1027B0000000000000000000000000000000F8071A
:1027C0000C060402040100010001800080004000AA
:1027D0004000400060006000600060006000000099
:1027E0000000000000000000000000000000F801F0
:1027F0000C030606060606060C021C03F000C801C0
:102800000C0306060606060606060C03F001000089
:102810000000000000000000000000000000F000C8
:102820000C010C03060206060606060606078C06C1
:1028300078060006000300030C018C0178000000FC
:102840000000000000000000000000000000000088
:102850000000000000000000E000E000E0000000D8
:102860000000000000000000E000E000E0000000C8
:102870000000000000000000000000000000000058
:102880000000000000000000600060000000000088
:102890000000000000000000000060006000400038
:1028A00020002000000000000000000000040002E2
:1028B0000001800040002000100008000400080013
:1028C0001000200040008000000100020004000011
:1028D00000000000000000000000000000000000F8
:1028E0000000000000000000FE07000000000000E3
:1028F000FE070000000000000000000000000000D3
:1029000000000000000000000000000004000800BB
:1029100010002000400080000001000200040002BE
:1029200000018000400020001000080004000000AA
:102930000000000000000000000000000000E003B4
:102940001806040C040C0C0C0C0C00078001400051
:102950004000400000000000E000E000E000000057
:10296000000000000000000000000000E00018036C
:102970000C02CC0564056605A605B604B604B604CB
:10298000B604B602E4010C040C021803F0000000C7
:1029900000000000000000000000000000006000D7
:1029A00060005000D000900090008800880108016D
:1029B000F801040304030402020202060F0F0000E0
:1029C0000000000000000000000000000000FE0009
:1029D0008C030C030C030C030C038C01FC000C0394
:1029E0000C020C060C060C060C060C03FE01000083
:1029F0000000000000000000000000000000E003F4
:102A000018030C060C040404060006000600060069
:102A10000600060006040C040C021803F000000077
:102A200000000000000000000000000000007F0027
:102A30008C010C030C030C060C060C060C060C0691
:102A40000C060C060C060C030C038C017F00000026
:102A50000000000000000000000000000000FF0374
:102A6000060306040604060086008600FE008600B3
:102A7000860086000600060406040602FF03000026
:102A80000000000000000000000000000000FF0344
:102A9000060306040604060086008600FE00860083
:102AA0008600860006000600060006001F000000E3
:102AB0000000000000000000000000000000F00026
:102AC00018010C020C0204020600060006000600B3
:102AD000C60F060306030C030C031803F0000000E6
:102AE00000000000000000000000000000000F0FC8
:102AF000060606060606060606060606FE0706067D
:102B00000606060606060606060606060F0F00005F
:102B10000000000000000000000000000000FC03B6
:102B200060006000600060006000600060006000A5
:102B3000600060006000600060006000FC03000056
:102B40000000000000000000000000000000F80786
:102B5000C000C000C000C000C000C000C000C00075
:102B6000C000C000C000C000C000C000C000C6005F
:102B700066003C0000000000000000000000CF03E1
:102B80008601C60046002600160036002E006E00A4
:102B90004600C60086008601060106038F07000076
:102BA00000000000000000000000000000001F0006
:102BB00006000600060006000600060006000600E5
:102BC000060006000600060406040602FF030000D5
:102BD00000000000000000000000000000000707E7
:102BE000860386038E038E034E034E034A035A0365
:102BF0005A033A03320332033203120387070000F9
:102C000000000000000000000000000000008E0F27
:102C10000C021C021C0234023402640264024402EC
:102C2000C402840284038403040304031F0200001B
:102C30000000000000000000000000000000F000A4
:102C400098010C030C020606060606060606060692
:102C50000606060606060C020C039801F0000000AA
:102C60000000000000000000000000000000FF0065
:102C70000603060606060606060606068603FE0088
:102C80000600060006000600060006001F00000001
:102C90000000000000000000000000000000F00044
:102CA00098010C030C020606060606060606060632
:102CB0000606060676064C02CC039801F000800753
:102CC0000003000000000000000000000000FF0101
:102CD000060306060606060606060603FE0046006E
:102CE000C600860086010603060306060F0E0000D6
:102CF0000000000000000000000000000000F802DA
:102D00000C030602060206000E003C00F800E00379
:102D1000800300070206020606060C03F00100000D
:102D20000000000000000000000000000000FE079E
:102D3000620461086108600060006000600060007B
:102D4000600060006000600060006000F80100004A
:102D500000000000000000000000000000001E074E
:102D60000C020C020C020C020C020C020C020C02F3
:102D70000C020C020C020C020C021801F000000004
:102D800000000000000000000000000000000F072D
:102D90000602040104010C010C018800880098005F
:102DA000980050005000700030002000200000000B
:102DB0000000000000000000000000000000F70E0E
:102DC000620442044604460464026402E402E4022B
:102DD0009C029C01980198018801880088000000ED
:102DE00000000000000000000000000000009E073E
:102DF0000C01080118019000B00060002000600084
:102E00006000D00090008801080104038E070000D4
:102E100000000000000000000000000000000F0F94
:102E2000060404020C0208011801B800B00070008A
:102E3000600060006000600060006000F801000059
:102E40000000000000000000000000000000FC077F
:102E50000C020603020180018000400040002000B7
:102E600020001000180008040C040402FE030000F7
:102E70000000000000000000E0032000200020000F
:102E80002000200020002000200020002000200042
:102E90002000200020002000200020002000200032
:102EA000E003000000000000000000000400040037
:102EB0000800080010001000100020002000400052
:102EC0004000C000800080000001000100020002FC
:102ED00000020004000000007C00400040004000B0
:102EE00040004000400040004000400040004000E2
:102EF00040004000400040004000400040004000D2
:102F00007C0000000000600090000801000000004C
:102F100000000000000000000000000000000000B1
:102F200000000000000000000000000000000000A1
:102F30000000000000000000000000000000000091
:102F40000000000000000000000000000000000081
:102F50000000000000000000000000000000000071
:102F60000000FF0F000000001800600000000000DB
:102F70000000000000000000000000000000000051
:102F80000000000000000000000000000000000041
:102F90000000000000000000000000000000000031
:102FA0000000000000000000F0010C030C0300030F
:102FB000E0031C030E03060306038E0B7C0E0000C9
:102FC00000000000000000000000000008000E00EB
:102FD0000C000C000C000C00CC013C031C060C0681
:102FE0000C060C060C060C060C021C03E401000087
:102FF00000000000000000000000000000000000D1
:103000000000000000000000F0008C018C0186012F
:1030100006000600060006020C020C01F00000008B
:103020000000000000000000000000000002C003DB
:10303000000300030003000378038C030C03060362
:10304000060306030603060304038C077801000049
:103050000000000000000000000000000000000070
:103060000000000000000000E001180308020C0648
:103070000C06FC070C000C0018041802E00100000C
:103080000000000000000000000000000000C0037D
:103090006006300630003000FE01300030003000A5
:1030A000300030003000300030003000FC01000003
:1030B0000000000000000000000000000000000010
:1030C0000000000000000000F007D8068C018C0111
:1030D0008C019801F8000C00FC00CC0306030603E9
:1030E0008E03F800000000000000000008000E0041
:1030F0000C000C000C000C00EC011C030C030C0376
:103100000C030C030C030C030C030C039E070000C0
:10311000000000000000000000000000000060004F
:1031200060000000000040007C0060006000600063
:10313000600060006000600060006000FC03000050
:103140000000000000000000000000000000C001BE
:10315000C001000000000001F00180018001800139
:103160008001800180018001800180018001800157
:10317000CC007C00000000000000000008000E00F1
:103180000C000C000C000C008C038C008C004C001C
:103190006C005C008C008C010C010C039E0700008D
:1031A00000000000000000000000000040007C0063
:1031B000600060006000600060006000600060000F
:1031C000600060006000600060006000FC030000C0
:1031D00000000000000000000000000000000000EF
:1031E00000000000000000003707EE0666066606D5
:1031F000660666066606660666066606FF0F000039
:1032000000000000000000000000000000000000BE
:103210000000000000000000EE011C030C030C0382
:103220000C030C030C030C030C030C039E0700009F
:10323000000000000000000000000000000000008E
:103240000000000000000000F00098010C030606DA
:1032500006060606060606060C030C03F000000030
:10326000000000000000000000000000000000005E
:103270000000000000000000EE011C030C060C061C
:103280000C060C060C060C060C031C03EC010C00CF
:103290000C003E00000000000000000000000000E4
:1032A000000000000000000078028C030C030603FD
:1032B000060306030603060304038C0378030003D6
:1032C0000003C00700000000000000000000000034
:1032D00000000000000000009F0358063806180098
:1032E000180018001800180018001800FF0000004F
:1032F00000000000000000000000000000000000CE
:103300000000000000000000F0031C030C020C028F
:103310003800F000C003040304038C03FC01000028
:10332000000000000000000000000000000000009D
:103330002000200030003000FE013000300030005E
:10334000300030003000300030023002E001000078
:10335000000000000000000000000000000000006D
:1033600000000000000008028E030C030C030C0395
:103370000C030C030C030C030C039C0778010000E6
:10338000000000000000000000000000000000003D
:1033900000000000000000001E070C0208010801E8
:1033A00018019000B000B000600060002000000034
:1033B000000000000000000000000000000000000D
:1033C0000000000000000000F70E620446046402E2
:1033D0006402EC029C019801980198010800000029
:1033E00000000000000000000000000000000000DD
:1033F0000000000000000000BC0718011001B00030
:1034000060006000E0009000080108039E070000D3
:1034100000000000000000000000000000000000AC
:1034200000000000000000009E07080108010801DC
:1034300090009000B000600060006000200020005C
:1034400024001C000000000000000000000000003C
:103450000000000000000000FC018401C4004400E2
:10346000600020003000180208020C03FC0100007C
:1034700000000000000000000003800080008000C9
:10348000800080008000800080004000200040001C
:10349000800080008000800080008000800080002C
:1034A0000003000040004000400040004000400099
:1034B000400040004000400040004000400040000C
:1034C00040004000400040004000400040004000FC
:1034D00040004000000000000C0010001000100030
:1034E000100010001000100010002000400020000C
:1034F000100010001000100010001000100010004C
:103500000C00000000001C002204C2048003000024
:1035100000000000000000000000000000000000AB
:10352000000000000000000000000000000000009B
:10353000000000000000000000000000000000008B
:10354000000000000000000000000000000000007B
:10355000000000000000000000000000000000006B
:10356000000000000000000000000000000000005B
:103570000000000000000000000000000000C0018A
:10358000C001C001C001C001C001C00180008000B5
:1035900080008000800080008000000000000000AB
:1035A00000008001C003C003800100000000000093
:1035B00000000000000000000000E01CE01CF01E05
:1035C000700E380718030801840000000000000096
:1035D00000000000000000000000000000000000EB
:1035E00000000000000000000000000000000000DB
:1035F00000000000000000000000000000000000CB
:1036000020102010201020102010FE7FFE7F1008B8
:10361000100810081008100810081008FE7FFE7F20
:10362000080408040804080408040000000000005E
:103630000000000000000000000000000001000188
:10364000C007601910311831183918393801700164
:10365000E001C0038007000F001D003900311C315C
:103660001C310C310C11180DE007000100010001A4
:10367000000000000000000000000000000000004A
:103680001C1036186308630C63046304630263024E
:103690006301361D9C378022806340634063206352
:1036A0002063306310221836081C00000000000060
:1036B000000000000000000000000000000000000A
:1036C000F00098018C018C018C018C018C00CC00E5
:1036D0007800183E1C083608320863046304C304EB
:1036E000C303834306438E26781C000000000000BD
:1036F000000000000000000000001C003C003C0036
:103700003000300010000C00060000000000000037
:1037100000000000000000000000000000000000A9
:103720000000000000000000000000000000000099
:103730000000000000000000000000400020001019
:103740000008000C000400060003000300038001D1
:1037500080018001800180018001800180010003DF
:103760000003000300060006000C00080010002003
:1037700000400000000000000000020004000800FB
:103780001000300020006000C000C000C0008001B8
:103790008001800180018001800180018001C000E2
:1037A000C000C0006000600030001000080004008D
:1037B0000200000000000000000000000000000007
:1037C0000000000000018003800300011C713C79AF
:1037D000783DC0070001C007783D3C791C710001AD
:1037E0008003800380010000000000000000000052
:1037F00000000000000000000000000000000000C9
:1038000000000000000000010001000100010001B3
:1038100000010001FC7F0001000100010001000126
:103820000001000100000000000000000000000096
:103830000000000000000000000000000000000088
:103840000000000000000000000000000000000078
:103850000000000000000000000000000000000068
:10386000000000001C003C003C0030003000100054
:103870000C00060000000000000000000000000036
:103880000000000000000000000000000000000038
:1038900000000000FE7F00000000000000000000AB
:1038A0000000000000000000000000000000000018
:1038B0000000000000000000000000000000000008
:1038C00000000000000000000000000000000000F8
:1038D00000000000000000000000000000000000E8
:1038E000000018003C003C00180000000000000030
:1038F0000000000000000000000000400060002008
:103900000030001000180008000C0004000600023F
:103910000003000180018000C00040006000200022
:1039200030001000180008000C000400060002001F
:103930000000000000000000000000000000000087
:10394000C007600C30181830183018200C600C605C
:103950000C600C600C600C600C600C600C6018203B
:10396000183018303018600CC0070000000000004C
:103970000000000000000000000000000000000047
:1039800000018001F8018001800180018001800137
:10399000800180018001800180018001800180011F
:1039A000800180018001C003F81F000000000000BA
:1039B0000000000000000000000000000000000007
:1039C000E007101C0818043004300C300C300030B4
:1039D00000180008000400020001800040002020C0
:1039E000102008200430FC1FFC1F00000000000015
:1039F00000000000000000000000000000000000C7
:103A0000E003180E0C0C0C180C180C180018000C05
:103A10000006C003000E00180010003000300C300B
:103A20000C300C100C18180CE00300000000000013
:103A30000000000000000000000000000000000086
:103A4000000C000E000E000F800E800E400E600E67
:103A5000200E100E100E080E040E040EFE7F000E37
:103A6000000E000E000E000E000EC07F00000000D1
:103A70000000000000000000000000000000000046
:103A8000F03FF03F10001000100008000800C807C9
:103A9000280C1818081000300030003000300C30AE
:103AA0000C3004180418080CF0030000000000009B
:103AB0000000000000000000000000000000000006
:103AC000800FC010203010301800180008000C00C3
:103AD0008C0F6C183C301C600C600C600C600C602F
:103AE0001860182030306018C00700000000000087
:103AF00000000000000000000000000000000000C6
:103B0000F83FF83F1C100C080408040400040002ED
:103B10000002000100010001800080008000C00060
:103B2000C000C000C000C000C000000000000000D5
:103B30000000000000000000000000000000000085
:103B4000E007300C18180C300C300C301C303818D2
:103B50007008E007B007180E0C1C06380630063057
:103B6000063006300C18180CE003000000000000BE
:103B70000000000000000000000000000000000045
:103B8000E00318040C080C18061006300630063046
:103B9000063006380C3C1836F0310030001800189A
:103BA00000180C0C0C060C03F001000000000000D3
:103BB0000000000000000000000000000000000005
:103BC0000000000000000000000000000000800174
:103BD000C003C003800100000000000000000000DE
:103BE00000008001C003C00380010000000000004D
:103BF00000000000000000000000000000000000C5
:103C00000000000000000000000000000000C000F4
:103C1000C0000000000000000000000000000000E4
:103C2000000000000000C000C000800080004000D4
:103C30004000000000000000000000000000002024
:103C4000001000080004000600038001C0006000AE
:103C5000300018000C00180030006000C000800127
:103C6000000300060004000800100020000000000F
:103C70000000000000000000000000000000000044
:103C80000000000000000000000000000000FE7FB7
:103C900000000000000000000000FE7F00000000A7
:103CA0000000000000000000000000000000000014
:103CB0000000000000000000000000000000040000
:103CC0000800100020006000C00080010003000612
:103CD000000C001800300018000C000600038001E2
:103CE000C000600020001000080004000000000078
:103CF0000000000000000000000000000000C007FD
:103D00003018083008600C601C601C601C600030BB
:103D1000001C000600018000800080008000000080
:103D200000008001C003C00380010000000000000B
:103D30000000000000000000000000000000000083
:103D4000C0076018103018200C2F8C4D864CC64CC4
:103D5000C64C664C66446644662666266615CC1CD0
:103D60000C40082018303018C00700000000000088
:103D70000000000000000000000000000000000142
:103D8000C001C001C00140016003200320032003E3
:103D90003006100610061006F80F080C080C080C68
:103DA0000C0C0418041806181F7C0000000000000A
:103DB0000000000000000000000000000000000003
:103DC000FE07181C1838183018301830183018181A
:103DD000180CF807181818301820186018601860A8
:103DE0001860186018301818FE0F0000000000005E
:103DF00000000000000000000000000000000000C3
:103E0000C0276038103018200C400C400400060019
:103E100006000600060006000600060006000C402C
:103E20000C400C2018303018C007000000000000C3
:103E30000000000000000000000000000000000082
:103E4000FE03180E18181830183018301860186053
:103E500018601860186018601860186018601830D2
:103E6000183018101818180EFE030000000000008B
:103E70000000000000000000000000000000000042
:103E8000FE3F18301820186018401800180818084D
:103E9000180CF80F180C180818081800180018004B
:103EA0001840184018201830FE3F000000000000A5
:103EB0000000000000000000000000000000000002
:103EC000FE7F1870184018C01880180018101810BD
:103ED0001818F81F181818101810180018001800D3
:103EE00018001800180018007E00000000000000F4
:103EF00000000000000000000000000000000000C2
:103F0000C013701C101018100C200C2004000600A8
:103F1000060006000600060006FC063006300C30DF
:103F20000C30183018303008C007000000000000C6
:103F30000000000000000000000000000000000081
:103F40003F7E0C180C180C180C180C180C180C18B8
:103F50000C180C18FC1F0C180C180C180C180C184A
:103F60000C180C180C180C183F7E00000000000004
:103F70000000000000000000000000000000000041
:103F8000F81F800180018001800180018001800193
:103F90008001800180018001800180018001800119
:103FA0008001800180018001F81F000000000000F6
:103FB0000000000000000000000000000000000001
:103FC000E07F000600060006000600060006000668
:103FD00000060006000600060006000600060006B1
:103FE0000006000600060006000600060E060E0388
:103FF0008E01FC0000000000000000000000000036
:104000007E7C181818081804180618021801980160
:104010009801D801B803380318071806180E180CB1
:10402000181C1818183018307EFC00000000000022
:104030000000000000000000000000000000000080
:104040007E0018001800180018001800180018004A
:1040500018001800180018001800180018001800A0
:104060001840184018201830FE3F000000000000E3
:104070000000000000000000000000000000000040
:104080001FF81C381C381C381C3C3434343434348D
:10409000343674326432643264326431C431C431CF
:1040A000C431C430C43084309FFC000000000000E4
:1040B0000000000000000000000000000000000000
:1040C0001F7C1C103C103410341074106410E41069
:1040D000C410C41184118413041304170416041E9D
:1040E000041C041C041C04181F180000000000001D
:1040F00000000000000000000000000000000000C0
:10410000C003300C181808100C300C300660066024
:1041100006600660066006600660066006600C20A9
:104120000C3008101818300CC0030000000000000C
:10413000000000000000000000000000000000007F
:10414000FE0F181818301860186018601860186092
:1041500018301818F80F1800180018001800180068
:1041600018001800180018007E0000000000000071
:10417000000000000000000000000000000000003F
:10418000C003300C18180C100C300C2006600660B0
:104190000660066006600660066006600660E46110
:1041A0002C331C321816300EC007004C007C00382F
:1041B00000000000000000000000000000000000FF
:1041C000FE07181C18381830183018301830181816
:1041D000180CF80798031803180718061806180E85
:1041E000180C180C181C18187E780000000000002D
:1041F00000000000000000000000000000000000BF
:10420000E027303818300C200C200C000C0018006F
:104210007800E003800F001E00380070006004602A
:104220000460086018303818C80F00000000000053
:10423000000000000000000000000000000000007E
:10424000FC3F8C2184618241824180018001800198
:104250008001800180018001800180018001800156
:104260008001800180018001E00700000000000063
:10427000000000000000000000000000000000003E
:104280003F7C0C100C100C100C100C100C100C10AF
:104290000C100C100C100C100C100C100C100C103E
:1042A0000C100C1008083804E003000000000000A7
:1042B00000000000000000000000000000000000FE
:1042C0003EF8182018201820301030103010301010
:1042D000600860086008E00CC004C004C0048003EB
:1042E0008003800380030001000100000000000043
:1042F00000000000000000000000000000000000BE
:10430000DFF38661862186218C210C218C238C137E
:104310008C138C134C1358125816580E380E380E36
:10432000380E300C100410041004000000000000CF
:10433000000000000000000000000000000000007D
:104340007E3E180838083004300470026002E00134
:10435000C001C00180018003400340072006200601
:10436000100C100C081808183E7C0000000000001B
:10437000000000000000000000000000000000003D
:104380007E7C1C10181018083008300C7004600473
:104390006002C002C002C001800180018001800172
:1043A0008001800180018001E00700000000000022
:1043B00000000000000000000000000000000000FD
:1043C000F83F18180818040C040E00060007000334
:1043D00080038001C001C000E00060007000300078
:1043E000382018201C100C18FE1F000000000000D0
:1043F00000000000000000000000C03F400040003E
:1044000040004000400040004000400040004000AC
:10441000400040004000400040004000400040009C
:104420004000400040004000400040004000C03FCD
:104430000000000000000000000000000000080074
:1044400018001800100030002000600060004000DC
:10445000C00080008001800100010003000200060E
:1044600000060004000C00080018001800100030BE
:1044700000200000000000000000FC030002000219
:10448000000200020002000200020002000200021C
:10449000000200020002000200020002000200020C
:1044A0000002000200020002000200020002FC03FF
:1044B000000000000000000000008007C006200887
:1044C00010100000000000000000000000000000CC
:1044D00000000000000000000000000000000000DC
:1044E00000000000000000000000000000000000CC
:1044F00000000000000000000000000000000000BC
:1045000000000000000000000000000000000000AB
:10451000000000000000000000000000000000009B
:10452000000000000000000000000000000000008B
:104530000000FFFF0000000000007800C000000144
:10454000000000000000000000000000000000006B
:10455000000000000000000000000000000000005B
:10456000000000000000000000000000000000004B
:10457000000000000000000000000000000000003B
:104580000000000000000000000000000000F00338
:1045900018060C0C0C0C000C800F700C1C0C0C0C76
:1045A000060C060C064C0C4FF8380000000000000A
:1045B00000000000000000000000000000001000EB
:1045C0001E00180018001800180018001800180F16
:1045D000D818383038601860186018601860186093
:1045E0001860182038307818C80700000000000054
:1045F00000000000000000000000000000000000BB
:104600000000000000000000000000000000C007E3
:10461000700C181818180C180C000C000C000C006A
:104620000C20182018103008C007000000000000FF
:10463000000000000000000000000000000000106A
:10464000001E001800180018001800180018E01BC1
:10465000301C181818180C180C180C180C180C18FA
:104660000C180818181C307AE0090000000000003F
:10467000000000000000000000000000000000003A
:104680000000000000000000000000000000C00763
:10469000300C181808100C300C30FC3F0C000C00CB
:1046A0000C00182018107018C0070000000000004F
:1046B00000000000000000000000000000000000FA
:1046C000003E80C380C0C0C0C000C000C000FC1F4E
:1046D000C000C000C000C000C000C000C000C000DA
:1046E000C000C000C000C000F80F000000000000C3
:1046F00000000000000000000000000000000000BA
:104700000000000000000000000000000000C07772
:10471000306C10181818181818181018300CF007EA
:1047200018001800F00FF03F08700C600C600C606F
:104730003838E00F0000000000000000000010000A
:104740001E00180018001800180018001800980F14
:10475000D818383018301830183018301830183051
:1047600018301830183018307EFC000000000000AF
:104770000000000000000000000000000000000039
:104780008003800380030000000000000001F801A6
:104790008001800180018001800180018001800111
:1047A0008001800180018001F81F000000000000EE
:1047B00000000000000000000000000000000000F9
:1047C0000038003800380000000000000010801F92
:1047D0000018001800180018001800180018001819
:1047E0000018001800180018001800180018180CFD
:1047F0001806F00300000000000000000000100098
:104800001E00180018001800180018001800183EA4
:10481000180C1806180318019801D8013803180756
:104820001806180C181C18187E7C000000000000E8
:104830000000000000000000000000000000000177
:10484000F8018001800180018001800180018001E8
:104850008001800180018001800180018001800150
:104860008001800180018001F81F0000000000002D
:104870000000000000000000000000000000000038
:104880000000000000000000000000000800EE1C16
:104890009C338C318C318C318C318C318C318C311E
:1048A0008C318C318C318C31DE7B000000000000BB
:1048B00000000000000000000000000000000000F8
:1048C00000000000000000000000000010001E0FAB
:1048D000D8183830183018301830183018301830D0
:1048E00018301830183018307EFC0000000000002E
:1048F00000000000000000000000000000000000B8
:104900000000000000000000000000000000C007E0
:10491000701C103018300C600C600C600C600C6067
:104920000C60183018303018C0070000000000007C
:104930000000000000000000000000000000000077
:1049400000000000000000000000000010009E0FAA
:1049500058183830182018601860186018601860EF
:1049600018601830383078189807180018001800A8
:1049700018007E00000000000000000000000000A1
:104980000000000000000000000000000000C02344
:10499000303C183818300C300C300C300C300C30E7
:1049A0000C3008301838303CE03300300030003034
:1049B000003000FC000000000000000000000000CB
:1049C00000000000000000000000000060007E3CCD
:1049D00060666061E000E000600060006000600010
:1049E0006000600060006000FE0700000000000042
:1049F00000000000000000000000000000000000B7
:104A00000000000000000000000000000000E0279F
:104A100030381830182018007000E003800F001C98
:104A2000043004300C301C18EC0F000000000000B3
:104A30000000000000000000000000000000000076
:104A400000000000800080008000C000E000FC1F2B
:104A5000C000C000C000C000C000C000C000C00056
:104A6000C000C020C0208011000F00000000000026
:104A70000000000000000000000000000000000036
:104A800000000000000000000000000010201E3C9C
:104A900018301830183018301830183018301830D6
:104AA00018301830183830F4E0130000000000000F
:104AB00000000000000000000000000000000000F6
:104AC00000000000000000000000000000007E3C2C
:104AD00018181808380830043004700260026002A8
:104AE000E001C001C001C000800000000000000023
:104AF00000000000000000000000000000000000B6
:104B00000000000000000000000000000000DFF7CF
:104B10008E630C238C238C239813981358165816E5
:104B2000700E700E700E20042004000000000000C3
:104B30000000000000000000000000000000000075
:104B40000000000000000000000000000000FC3E2B
:104B500070087004E004C002C001800380034007B5
:104B60006006200C100C18183E7E000000000000AB
:104B70000000000000000000000000000000000035
:104B800000000000000000000000000000007E7C2B
:104B90001818180830083008300460046004C00297
:104BA000C002C0028001800180018000800080007E
:104BB0004C003C000000000000000000000000006D
:104BC0000000000000000000000000000000FC1FCA
:104BD0000C0C040E0406000380038001C000E000FA
:104BE0007020302038301C18FC1F0000000000002E
:104BF0000000000000000000000000300008000479
:104C00000004000400040004000400040004000484
:104C100000040002800100020004000400040004FB
:104C20000004000400040004000400040004000860
:104C3000003000000001000100010001000100013E
:104C4000000100010001000100010001000100015C
:104C5000000100010001000100010001000100014C
:104C6000000100010001000100010001000100013C
:104C7000000100010000000000000C0010002000F6
:104C80002000200020002000200020002000200024
:104C90002000400080014000200020002000200073
:104CA0002000200020002000200020002000100014
:104CB0000C00000000003800C400864002610022A1
:104CC000001C0000000000000000000000000000C8
:104CD00000000000000000000000000000000000D4
:104CE00000000000000000000000000000000000C4
:104CF00000000000B5E710001000FF0111011101D4
:104D0000FF0111011101FF0111041004E007D7D3C5
:104D10000000FC018000400020002000FF07200070
:104D20002000200020003800B5E7800080008000CF
:104D3000FC1F841084108410FC1F841084108410C5
:104D4000FC1F845080408040007FD7D30000FE1FAE
:104D500000080004000280018000FF7F80008000C6
:104D60008000800080008000A0004000B5E70000C7
:104D70000000000000180000080000080000080003
:104D8000F0FF0F100804100804100804100804F0C5
:104D9000FF07100804100804100804100804F0FFAE
:104DA0000710080000081000081000082000183044
:104DB00000F01F000000D7D300000000000000003A
:104DC00004F0FF0F00000600000100C000002800F2
:104DD000001800001800001830FEFF7F00180000C7
:104DE0001800001800001800001800001800001833
:104DF00000001800001800001F00000C0000000058
:104E0000B5E7000000000000000000C0000000C086
:104E1000010000C0000000C0000000C0000000C091
:104E20000000E0FFFF0360C0000360C0000360C03B
:104E3000000360C0000360C0000360C00003E0FF27
:104E4000FF0360C0000360C0000360C0000360C0D7
:104E5000000360C00003E0FFFF0360C0000160C00A
:104E6000000000C0000800C0001000C0001000C01A
:104E7000001800C001380080FF1F00000000000083
:104E80000000D7D300000000000000000000000078
:104E900000000003C0FFFF07000080070000C00003
:104EA000000060000000180000000C0000800300FB
:104EB0000080030000800100008001080080011CC8
:104EC000FCFFFF3F00800100008001000080010026
:104ED00000800100008001000080010000800100CE
:104EE00000800100008001000080010000800100BE
:104EF0000080010000FC010000E000000040000014
:104F000000000000001078007800011BFFFFFFFF89
:104F1000FFFFFFFFFFFFFFFFFFFFFFFFFFFFFFFFA1
:104F2000FFFFFFFFFFFFFFFFFFFFFFFFFFFFFFFF91
:104F3000FFFFFFFFFFFFFFFFFFFFFFFFFFFFFFFF81
:104F4000FFFFFFFFFFFFFFFFFFFFFFFFFFFFFFFF71
:105E5000FFFFFFFFFFFFDFFFFFFFFFFFFFFFFFFF72
:105E6000DFFFFFFFFFFFFFFFFFFFDFFFFFFFFFFF82
:105E7000FFFFFFFFFFFFFFFFFFFFFFFFFFFFFFFF32
:105E8000FFFFFFFFFFFFFFFFFFFFFFFFFFFFFFFF22
:105E9000FFFFFFFFFFFFFFFFFFFFFFFFFFFFFFFF12
:105EA000DFFFFFFFFFFFFFFFFFFFFFFFFFFFFFFF22
:105EB000FFFFFFFFFFFFFFFFFFFFFFFFFFFFFFFFF2
:105EC000FFFFFFFFFFFFFFFFFFFFFFFFFFFFFFFFE2
:105ED000FFFFFFFFFFFFFFFFFFFFFFFFFFFFFFFFD2
:105EE000FFFFFFFFFFFFFFFFFFFFFFFFFFFFFFFFC2
:105EF000FFFFFFFFFFFFFFFFFFFFFFFFFFFFFFFFB2
:105F0000FFFFFFFFFFFFFFFFFFFFFFFFFFFFFFFFA1
:105F1000FFFFFFFFFFFFFFFFFFFFFFFFFFFFFFFF91
:105F2000FFFFFFFFFFFFFFFFFFFFFFFFFFFFFFFF81
:105F3000FFFFFFFFFFFFFFFFFFFFFFFFFFFFFFFF71
:105F4000FFFFFFFFFFFFFFFFFFFFFFFFFFFFFFFF61
:105F5000FFFFDFFFFFFFFFFFDFFFFFFFFFFFFFFF91
:105F6000FFFFFFFFFFFFFFFFFFFFFFFFFFFFFFFF41
:105F7000FFFFFFFFFFFFFFFFFFFFFFFFFFFFFFFF31
:105F8000FFFFFFFFFFFFFFFFFFFFFFFFFFFFFFFF21
:105F9000FFFFDFFFFFFFFFFFFFFFFFFFFFFFFFFF31
:105FA000DFFFDFFFFFFFFFFFFFFFFFFFFFFFFFFF41
:105FB000FFFFFFFFFFFFFFFFFFFFFFFFFFFFFFFFF1
:105FC000FFFFFFFFFFFFFFFFFFFFFFFFFFFFFFFFE1
:105FD000FFFFFFFFFFFFFFFFFFFFFFFFFFFFFFFFD1
:105FE000FFFFFFFFFFFFFFFFFFFFFFFFFFFFFFFFC1
:105FF000FFFFFFFFFFFFFFFFFFFFFFFFFFFFFFFFB1
:10600000FFFFFFFFFFFFFFFFFFFFFFFFFFFFFFFFA0
:10601000FFFFFFFFFFFFFFFFFFFFFFFFFFFFFFFF90
:10602000FFFFFFFFFFFFFFFFFFFFFFFFFFFFFFFF80
:10603000FFFFFFFFDFFFFFFFFFFFFFFFFFFFFFFF90
:10604000FFFFFFFFFFFFFFFFFFFFDFFFFFFFFFFF80
:10605000FFFFFFFFFFFFFFFFFFFFFFFFFFFFFFFF50
:10606000FFFFFFFFFFFFFFFFFFFFFFFFFFFFFFFF40
:10607000FFFFFFFFFFFFFFFFFFFFFFFFFFFFFFFF30
:10608000FFFFFFFFDFFFFFFFFFFFFFFFFFFFFFFF40
:10609000FFFFFFFFFFFFFFFFFFFFFFFFFFFFFFFF10
:1060A000FFFFFFFFFFFFFFFFFFFFFFFFFFFFFFFF00
:1060B000FFFFFFFFFFFFFFFFFFFFFFFFFFFFFFFFF0
:1060C000FFFFFFFFFFFFFFFFFFFFFFFFFFFFFFFFE0
:1060D000FFFFFFFFFFFFFFFFFFFFFFFFFFFFFFFFD0
:1060E000FFFFFFFFFFFFFFFFFFFFFFFFFFFFFFFFC0
:1060F000FFFFFFFFFFFFFFFFFFFFFFFFFFFFFFFFB0
:10610000FFFFFFFFFFFFFFFFFFFFFFFFFFFFFFFF9F
:10611000FFFFFFFFFFFFFFFFFFFFFFFFFFFFDFFFAF
:10612000FFFFFFFFFFFFFFFFFFFFDFFFFFFFFFFF9F
:10613000FFFFFFFFFFFFFFFFFFFFFFFFFFFFFFFF6F
:10614000FFFFFFFFFFFFFFFFFFFFFFFFFFFFFFFF5F
:10615000FFFFFFFFFFFFFFFFFFFFFFFFFFFFFFFF4F
:10616000FFFFFFFFFFFFFFFFFFFFFFFFFFFFDFFF5F
:10617000FFFFDFFFFFFFFFFFFFFFFFFFFFFFDFFF6F
:10618000DFFFFFFFDFFFFFFFFFFFFFFFFFFFFFFF5F
:10619000FFFFFFFFFFFFFFFFFFFFFFFFFFFFFFFF0F
:1061A000FFFFFFFFFFFFFFFFFFFFFFFFFFFFFFFFFF
:1061B000FFFFFFFFFFFFFFFFFFFFFFFFFFFFFFFFEF
:1061C000FFFFFFFFFFFFFFFFFFFFFFFFFFFFFFFFDF
:1061D000FFFFFFFFFFFFFFFFFFFFFFFFFFFFFFFFCF
:1061E000FFFFFFFFFFFFFFFFFFFFFFFFFFFFFFFFBF
:1061F000FFFFFFFFFFFFFFFFFFFFFFFFFFFFFFFFAF
:10620000FFFFFFFFFFFFFFFFFFFFFFFFFFFFFFFF9E
:10621000DFFFFFFFFFFFFFFF3CE755ADD39C55AD10
:106220003CE7FFFFFFFFFFFFFFFFDFFFFFFFFFFF79
:10623000FFFFFFFFFFFFFFFFFFFFFFFFFFFFFFFF6E
:10624000FFFFFFFFFFFFFFFFFFFFFFFFFFFFFFFF5E
:10625000FFFFFFFFFFFFFFFFFFFFFFFFDFFFFFFF6E
:10626000FFFFFFFFFFFFFFFFDFFF9AD659CE5DEF75
:10627000FFFFFFFFFFFFFFFFDFFFFFFFFFFFFFFF4E
:10628000FFFFFFFFFFFFFFFFFFFFFFFFFFFFFFFF1E
:10629000FFFFFFFFFFFFFFFFFFFFFFFFFFFFFFFF0E
:1062A000FFFFFFFFFFFFFFFFFFFFFFFFFFFFFFFFFE
:1062B000FFFFFFFFFFFFFFFFFFFFFFFFFFFFFFFFEE
:1062C000FFFFFFFFFFFFFFFFFFFFFFFFFFFFFFFFDE
:1062D000FFFFFFFFFFFFFFFFFFFFFFFFFFFFFFFFCE
:1062E000FFFFFFFFFFFFFFFFFFFFFFFFFFFFFFFFBE
:1062F000FFFFFFFFFFFFFFFFFFFFFFFFDFFFFFFFCE
:10630000FFFFFFFFBEF730844529C318E318C31809
:106310004529D39CFFFFFFFFDFFFFFFFFFFFFFFFCC
:10632000FFFFFFFFFFFFFFFFFFFFFFFFFFFFFFFF7D
:10633000FFFFFFFFFFFFFFFFFFFFFFFFFFFFFFFF6D
:10634000FFFFFFFFFFFFFFFFFFFFFFFFFFFFDFFF7D
:10635000FFFFFFFFDFFFB39408426529E318863192
:106360008E73BAD6DFFFFFFFFFFFFFFFFFFFFFFFC8
:10637000FFFFFFFFFFFFFFFFFFFFFFFFFFFFFFFF2D
:10638000FFFFFFFFFFFFFFFFFFFFFFFFFFFFFFFF1D
:10639000FFFFFFFFFFFFFFFFFFFFFFFFFFFFFFFF0D
:1063A000FFFFFFFFFFFFFFFFFFFFFFFFFFFFFFFFFD
:1063B000FFFFFFFFFFFFFFFFFFFFFFFFFFFFFFFFED
:1063C000FFFFFFFFFFFFFFFFFFFFFFFFFFFFFFFFDD
:1063D000FFFFFFFFFFFFFFFFFFFFFFFFFFFFFFFFCD
:1063E000FFFFFFFFFFFFFFFFFFFFFFFFFFFFFFFFBD
:1063F000FFFF3CE78A52A2106529A6318631A631FB
:106400004529A210D39CDFFFFFFFFFFFFFFFFFFF27
:10641000FFFFFFFFFFFFFFFFFFFFFFFFFFFFFFFF8C
:10642000FFFFFFFFFFFFFFFFFFFFFFFFFFFFFFFF7C
:10643000FFFFFFFFFFFFFFFFFFFFFFFFDFFFFFFF8C
:10644000FFFF1CE7494A821066296529863186319B
:1064500082104529B6B5DFFFFFFFDFFFFFFFFFFF1B
:10646000FFFFFFFFFFFFFFFFFFFFFFFFFFFFFFFF3C
:10647000FFFFFFFFFFFFFFFFFFFFFFFFFFFFFFFF2C
:10648000FFFFFFFFFFFFFFFFFFFFFFFFFFFFFFFF1C
:10649000FFFFFFFFFFFFFFFFFFFFFFFFFFFFFFFF0C
:1064A000FFFFFFFFFFFFFFFFFFFFFFFFFFFFFFFFFC
:1064B000FFFFFFFFFFFFFFFFFFFFFFFFFFFFFFFFEC
:1064C000FFFFFFFFFFFFFFFFFFFFFFFFFFFFFFFFDC
:1064D000FFFFFFFFFFFFFFFFFFFFFFFFFFFFFFFFCC
:1064E000BEF78A52A210A631863186318631A63196
:1064F00086316529E318F7BDFFFFFFFFFFFFFFFFB0
:10650000FFFFFFFFFFFFFFFFFFFFFFFFFFFFFFFF9B
:10651000FFFFFFFFFFFFFFFFFFFFFFFFFFFFFFFF8B
:10652000FFFFFFFFFFFFFFFFFFFFFFFFFFFFFFFF7B
:106530005DEFC739C318C7396629A6318631A63140
:1065400086316531821014A5FFFFFFFFFFFFFFFFBB
:10655000FFFFFFFFFFFFFFFFFFFFFFFFFFFFFFFF4B
:10656000FFFFFFFFFFFFFFFFFFFFFFFFFFFFFFFF3B
:10657000FFFFFFFFFFFFFFFFFFFFFFFFFFFFFFFF2B
:10658000FFFFFFFFFFFFFFFFFFFFFFFFFFFFFFFF1B
:10659000FFFFFFFFFFFFFFFFFFFFFFFFFFFFFFFF0B
:1065A000FFFFFFFFFFFFFFFFFFFFFFFFFFFFFFFFFB
:1065B000FFFFFFFFFFFFFFFFFFFFFFFFFFFFFFFFEB
:1065C000FFFFFFFFFFFFFFFFFFFFFFFFFFFFDFFFFB
:1065D0006E73C318A73986318631A631863186316C
:1065E000A631863124210842BFFFFFFFFFFFFFFFD6
:1065F000FFFFFFFFFFFFFFFFFFFFFFFFFFFFFFFFAB
:10660000FFFFFFFFFFFFFFFFFFFFFFFFDFFFFFFFBA
:10661000FFFFFFFFFFFFFFFFFFFFFFFFFFFFFFFF8A
:10662000EB5A0421A631863186318631A631863176
:10663000A73966318631C318B6B5FFFFDFFFFFFF0C
:10664000FFFFFFFFFFFFFFFFFFFFDFFFFFFFFFFF7A
:10665000FFFFFFFFFFFFFFFFFFFFFFFFFFFFFFFF4A
:10666000FFFFFFFFFFFFFFFFFFFFFFFFFFFFFFFF3A
:10667000FFFFFFFFFFFFFFFFFFFFFFFFFFFFFFFF2A
:10668000FFFFFFFFFFFFFFFFFFFFFFFFFFFFFFFF1A
:10669000FFFFFFFFFFFFFFFFFFFFFFFFFFFFFFFF0A
:1066A000FFFFFFFFFFFFFFFFFFFFFFFFFFFFFFFFFA
:1066B000FFFFFFFFFFFFFFFFFFFFFFFFFFFF14A52F
:1066C000A31886318631A739663186318631863105
:1066D00086318631A739C318F4A4DFFFFFFFFFFF1F
:1066E000FFFFFFFFFFFFFFFFFFFFFFFFFFFFFFFFBA
:1066F000FFFFFFFFFFFFFFFFFFFFFFFFFFFFFFFFAA
:10670000FFFFDFFFFFFFFFFFDFFFFFFFFFFF14A51E
:10671000C3188631C739A6318631A6316631863134
:106720006631A731A631452986311CE7FFFFFFFFFF
:10673000FFFFFFFFFFFFDFFFDFFFFFFFFFFFFFFFA9
:10674000FFFFFFFFFFFFFFFFFFFFFFFFFFFFFFFF59
:10675000FFFFFFFFFFFFFFFFFFFFFFFFFFFFFFFF49
:10676000FFFFFFFFFFFFFFFFFFFFFFFFFFFFFFFF39
:10677000FFFFFFFFFFFFFFFFFFFFFFFFFFFFFFFF29
:10678000FFFFFFFFFFFFFFFFFFFFFFFFFFFFFFFF19
:10679000FFFFFFFFFFFFFFFFFFFFFFFFFFFFFFFF09
:1067A000DFFFFFFFFFFFFFFFFFFFFFFF5DEF863112
:1067B0002529A73186316629A6318631A731663170
:1067C000A7316631A6310421294AFFFFFFFFFFFFF1
:1067D000FFFFFFFFFFFFFFFFFFFFFFFFFFFFFFFFC9
:1067E000FFFFFFFFFFFFFFFFFFFFFFFFFFFFFFFFB9
:1067F000FFFFFFFFFFFFDFFFFFFFFFFF7DEFA63182
:106800004529C739A6318631A6318631A631A63150
:1068100086318631C739C739C318EC5AFFFFDFFF0D
:10682000FFFFDFFFFFFFFFFFFFFFFFFFFFFFFFFF98
:10683000FFFFFFFFFFFFFFFFFFFFFFFFFFFFFFFF68
:10684000FFFFFFFFFFFFFFFFFFFFFFFFFFFFFFFF58
:10685000FFFFFFFFFFFFFFFFFFFFFFFFFFFFFFFF48
:10686000FFFFFFFFFFFFFFFFFFFFFFFFFFFFFFFF38
:10687000FFFFFFFFFFFFFFFFFFFFFFFFFFFFFFFF28
:10688000FFFFFFFFFFFFFFFFFFFFFFFFDFFFFFFF38
:10689000FFFFFFFFFFFFFFFFFFFFFFFF8E73C31828
:1068A000A73986318631C739863186316629C7399D
:1068B0008631A7318631A631242159CEFFFFDFFF73
:1068C000FFFFFFFFFFFFFFFFFFFFFFFFFFFFFFFFD8
:1068D000FFFFFFFFFFFFFFFFFFFFFFFFDFFFFFFFE8
:1068E000FFFFFFFFFFFFFFFFFFFFFFFF518CC318FC
:1068F000C7398631A631A731A63186318631863136
:106900008631863186316629A731E318D7BDFFFF6E
:10691000FFFFFFFFDFFFFFFFFFFFFFFFFFFFFFFFA7
:10692000FFFFFFFFFFFFFFFFFFFFFFFFFFFFFFFF77
:10693000FFFFFFFFFFFFFFFFFFFFFFFFFFFFFFFF67
:10694000FFFFFFFFFFFFFFFFFFFFFFFFFFFFFFFF57
:10695000FFFFFFFFFFFFFFFFFFFFFFFFFFFFFFFF47
:10696000FFFFFFFFFFFFFFFFFFFFFFFFFFFFFFFF37
:10697000FFFFFFFFFFFFFFFFFFFFFFFFFFFFFFFF27
:10698000FFFFDFFFFFFFFFFFDFFFBAD645294529E5
:10699000A631A7318631662986318631A731863105
:1069A000863186318631A631E4189294FFFFFFFFCD
:1069B000FFFFFFFFFFFFFFFFFFFFFFFFFFFFFFFFE7
:1069C000FFFFFFFFFFFFFFFFFFFFFFFFFFFFFFFFD7
:1069D000FFFFFFFFFFFFFFFFFFFF9EF72842652934
