:020000040800F2
:10000000A8090020C9010008231F0008DD1100080D
:10001000211F0008CF020008E120000800000000B6
:100020000000000000000000000000007B2000082D
:10003000D102000800000000792000087D2000089F
:10004000E3010008E3010008E3010008E301000800
:10005000E3010008E3010008E3010008E3010008F0
:10006000E3010008E3010008E3010008E3010008E0
:10007000E3010008E3010008E3010008E3010008D0
:10008000E3010008E3010008E3010008E3010008C0
:10009000E3010008E3010008E3010008E3010008B0
:1000A000E3010008E3010008E3010008E3010008A0
:1000B000E3010008E3010008E3010008E301000890
:1000C000E3010008ED110008E1110008E301000858
:1000D000E3010008E3010008E3010008E301000870
:1000E000E3010008E3010008E301000800F002F862
:1000F00000F05AF80AA090E8000C82448344AAF168
:100100000107DA4501D100F04FF8AFF2090EBAE865
:100110000F0013F0010F18BFFB1A43F0010318473B
:1001200038210000582100000A444FF0000C10F85C
:10013000013B13F0070408BF10F8014B1D1108BF65
:1001400010F8015B641E05D010F8016B641E01F805
:10015000016BF9D113F0080F1EBF10F8014BAD1C55
:100160000C1B09D16D1E58BF01F801CBFAD505E073
:1001700014F8016B01F8016B6D1EF9D59142D6D3CD
:10018000704700000023002400250026103A28BFF5
:1001900078C1FBD8520728BF30C148BF0B607047F9
:1001A0001FB51FBD10B510BD00F058F81146FFF780
:1001B000F7FF02F02DF800F076F803B4FFF7F2FF36
:1001C00003BC00F07DF8000009488047094800475B
:1001D000FEE7FEE7FEE7FEE7FEE7FEE7FEE7FEE7F7
:1001E000FEE7FEE704480549054A064B7047000054
:1001F000DF200008ED000008A8030020A809002067
:10020000A8050020A80500204FF0000200B5134605
:1002100094469646203922BFA0E80C50A0E80C5026
:10022000B1F12001BFF4F7AF090728BFA0E80C50D7
:1002300048BF0CC05DF804EB890028BF40F8042BD0
:1002400008BF704748BF20F8022B11F0804F18BF3D
:1002500000F8012B7047704770477047754600F0F3
:100260002BF8AE4605006946534620F00700854648
:1002700018B020B5FFF7B6FFBDE820404FF00006EC
:100280004FF000074FF000084FF0000B21F007017E
:10029000AC46ACE8C009ACE8C009ACE8C009ACE8C1
:1002A000C0098D46704710B50446AFF30080204664
:1002B000BDE81040FFF781BF0048704748030020A9
:1002C00001491820ABBEFEE7260002007047FEE79A
:1002D000704772B6FEE7000010B590F821100024B8
:1002E000022903D00421816301243DE001680A68EA
:1002F00022F00E020A6001680A6822F001020A6018
:100300001A4A0168914201D1012121E0174A1432B1
:10031000914201D110211BE0144A2832914201D1AF
:10032000891515E0114A3C32914201D189140FE040
:100330000E4A5032914202D14FF4803108E00B4A0C
:100340006432914202D14FF4801101E04FF080718C
:10035000064A083A5160012180F82110002180F8F6
:100360002010416B01B18847204610BD08000240B3
:1003700090F821007047000070B5044600F0FEF8C8
:100380000546601C02D004480078044400F0F6F8EA
:10039000401BA042FAD370BD000000202DE9F84FA9
:1003A000DFF8B8910024A9F1040B23460F2709F1C7
:1003B000040AABF1040EC9E00125A5402A40AA4277
:1003C0007DD1674ED1F804C0ACEB0608B44532D0FD
:1003D00014DCBCF1030F3AD009DCBCF1000F2AD0C9
:1003E000BCF1010F1CD0BCF1020F31D11DE0BCF1FA
:1003F000110F17D0BCF1120F2AD119E0B8F5881FE0
:1004000019D006DCB8F5803F15D0B8F5801F1FD194
:1004100011E0B8F5001F0ED0B8F5041F18D10AE09E
:10042000CB6815E0CB681B1D12E0CB6808330FE0EA
:10043000CB680C330CE08B682BB1012B4FF0080319
:1004400003D0456104E0042302E0056100E00023DD
:10045000FF2A01D8064601E000F104064FEA8405B0
:1004600001D9A5F12005D6F8008007FA05FC28EA95
:100470000C0803FA05F548EA0508C6F800804D683F
:10048000ED0062D5374DAE6946F00106AE61AD694B
:1004900024F0030605F001050095334D06EB050C2D
:1004A000DCF80850A607360F07FA06F825EA080513
:1004B000DFF8B880404503D14FF0000817E044E072
:1004C000DFF8AC80404502D14FF001080FE0DFF8C3
:1004D000A480404502D14FF0020808E0DFF8988080
:1004E000404502D14FF0030801E04FF0040808FA3C
:1004F00006F848EA0508CCF808804D68D9F800608D
:10050000ED024D4601D5164300E096432E604D683E
:10051000DAF80060AD02554601D5164300E0964377
:100520002E604D68DBF80060AD035D4601D51643D3
:1005300000E096432E604D68DEF80060ED037546DE
:1005400001D5164300E096432E60641C0D682A46D0
:10055000E5407FF431AFBDE8F88F000008040140AA
:10056000000011100010024000000140000801408E
:10057000000C014000100140001401400148806857
:100580007047000000000020704770472DE9F041DF
:10059000016804464A694E6890F83E000025D7433A
:1005A000FA050BD4F243D20508D46FF4807201250A
:1005B0004A6121680A6842F400420A60B90508D419
:1005C000F143C90505D422686FF4007145F00205B6
:1005D0005161790525D4F143C90522D4638D94F87E
:1005E0003D10226B202808D13BB9212910D02929A0
:1005F0000ED0282901D1212A0AD022686FF4806107
:10060000516145F00405102806D0402804D008E0C8
:10061000204601F053FA04E02068016841F40071BB
:100620000160380508D4F043C00505D421686FF493
:10063000006045F008054861002D07D0206C284374
:1006400020642046BDE8F04100F03CBEBDE8F081EA
:100650002DE9F047026800215368C66A90F83E40D1
:1006600090F83D50102C12D0402C10D0046C002C6F
:100670007DD05469E443A6077AD4DE43B60577D427
:10068000036C03B19169BDE8F04701F0F3B99769D4
:1006900051694FF42A0CC9435FEAC1784FF02A49E7
:1006A00004D066452AD04E4528D010E0DE43B6057A
:1006B0000DD4C16A614501D1012103E0C16A4945F8
:1006C00001D10821C162BDE8F04701F0E5B80E078D
:1006D00016D4DE43B60513D4416CC9B21161416B27
:1006E00009B1896A29B9816B002907D0896A002973
:1006F00004D00068416841F400614160BDE8F087C2
:100700008E0706D4DE43B60503D4BDE8F04701F0FA
:1007100017B8FE43526876074FEA02521DD4002AEA
:10072000ECDB0A0608D4DA43520505D4490705D59F
:10073000BDE8F04700F0A8BF4907DFD4D9438905D9
:10074000DCD4212D05D0402CD8D1BDE8F04701F0F4
:10075000E9B8BDE8F04700F055BF002ACEDB4A06F5
:100760000BD4DA43520508D4490708D501E00DE05F
:100770000EE0BDE8F04700F0D1BE4907BED4D94332
:100780008905BBD4BDE8F04700F05FBE916970E712
:10079000E10606D4D943890503D4BDE8F04701F04A
:1007A000D5B92821212D27D0292D25D0650655D44E
:1007B000DD436D0552D4640752D590F83D30448D29
:1007C000002C9BD01269446A2270426A521C426219
:1007D000428D521E4285428D002A8FD12A2B8DD107
:1007E0000268536823F4806353602222026380F816
:1007F0003D1000F0E9F981E7250623D4DD436D05BE
:1008000020D4640720D590F83D30448D002CF2D0E0
:10081000446A24781461426A521C4262428D521E1C
:100820004285428D002AE6D1292BE4D10268536823
:1008300023F4806353602122026380F83D1000F0AE
:10084000C4F95BE76107D6D4D9438905D3D4418D78
:100850000029D0D0416A097811610AE06107CAD441
:10086000D9438905C7D4418D0029C4D01169426A92
:100870001170416A491C4162418D491E41853DE725
:100880007047000070B5040025D094F83D000025A5
:1008900020B984F83C50204600F056F9242084F812
:1008A0003D002068016821F00101016020680168B5
:1008B00041F4004101602068016821F400410160B9
:1008C00000F0B2FA4D4A6168914201D84C4900E00B
:1008D0004C49884201D2012070BD4B492368B0FBCE
:1008E000F1F15E6826F03F060E435E606368934256
:1008F00006D94FF4967359434FF47A73B1FBF3F171
:100900002368491C1E6A26F03F063143196261685C
:10091000914210D84900401EB0FBF1F2521CC2F3C4
:100920000B02042A01D2042022E0B0FBF1F0401CAB
:10093000C0F30B001CE0A268F2B301EBC10303EBB0
:100940000116431EB3FBF6F35B1C43F480431B0507
:1009500049D092B301EBC10202EB0111401EB0FB82
:10096000F1F0401CC0F30B0040F4804040F4004024
:100970002168CA694CF6FF739A431043C861D4E9F1
:10098000071001432068026822F0C0021143016091
:10099000D4E9030101432068826848F2FF339A4397
:1009A00011438160D4E9050108432168CA6822F037
:1009B000FF021043C86001E00EE016E02068016805
:1009C00041F0010101602564202084F83D00256389
:1009D00084F83E50002070BD01EB4106431EB3FB7E
:1009E000F6F35B1CB3E70120C2E701EB4101401EB7
:1009F000B0FBF1F0401CC0F30B00B7E7A08601008C
:100A000080841E0000093D0040420F00704770477F
:100A100070477047704700002DE9FF4F83B09A463A
:100A2000DDE9119793460446DDF84080FFF7A6FD07
:100A3000054694F83D0020287FD119230122404922
:100A40002046009501F05CF9002876D194F83C002E
:100A5000012872D0012084F83C0020680168C90791
:100A600003D1016841F0010101602068016821F4AF
:100A700000610160212084F83D00402084F83E00A0
:100A800000262664C4F82480A4F82A90608D20856E
:100A90002C48E062CDE9007553465A462046049939
:100AA00000F094FF70B930E02A463946204601F044
:100AB000CDF958B1206C042804D12068016841F4B4
:100AC00000710160012007B0BDE8F08F606A216805
:100AD00000780861606A401C6062218D491E89B2FD
:100AE0002185628D521E628522685369DB435B0754
:100AF0000BD469B100781061606A401C6062208D7F
:100B0000401E2085608D401E6085208D0028CBD141
:100B10002A463946204601F0C7F80028CAD154F8C1
:100B20003D0B016841F400710160202004F81E09AA
:100B3000E67766770020C6E7FFE70220C3E70000FC
:100B4000020010000000FFFF10B586B000210091E8
:100B50000191029103910068184988422BD1184CE9
:100B6000A06940F00800A061A069694600F0080093
:100B700004904FF4406000901220019003200390F5
:100B80001048FFF70BFCE06940F48000E061E06989
:100B9000002200F4800004901146212000F07CF82F
:100BA000212000F06BF800221146222000F074F89A
:100BB000222000F063F806B010BD0000005800408D
:100BC00000100240000C01407047704702488168E5
:100BD000027811448160704700000020074810B57A
:100BE000016841F010010160032000F075F80F204A
:100BF00000F006F800F024F8002010BD00200240AC
:100C000070B50D4D04464FF47A712878B1FBF0F0C1
:100C10000A490968B1FBF0F000F0CCFA48B9102C91
:100C200007D200222146501E00F036F800206C60EA
:100C300070BD012070BD0000000000200C000020ED
:100C40000C4808B5816941F001018161816901F0B9
:100C500001010091C16941F08051C161C06900F09A
:100C6000805000900448416821F0E06141F000713B
:100C7000416008BD0010024000000140002809DB6F
:100C800000F01F02012191404009800000F1E020A6
:100C9000C0F8001170470000F0B40E4B1B680C4602
:100CA000C3F30223C3F10705042D00D90425191D40
:100CB000072901D2002300E0DB1E012606FA05F118
:100CC000491E214099409E40761E16403143F0BC9B
:100CD00001F08EBA0CED00E0064900F0070208684A
:100CE0004FF6FF03184040EA0220034A1043086011
:100CF000704700000CED00E00000FA052DE9F04718
:100D00000F46050061D0434E306800F00700B8423E
:100D100009D2306820F0070038433060306800F0B6
:100D20000700B84251D128683B4C810712D54007D3
:100D300003D5606840F4E06060602878000703D560
:100D4000606840F4605060606068A96820F0F0005E
:100D5000084360602878C00728D06868012810D050
:100D60002168022810D0890700292EDA616821F055
:100D7000030101436160FFF701FC804641F28839BD
:100D80000DE021688903EFE78901EDE7FFF7F6FB46
:100D9000A0EB0801494502D90320BDE8F08760684F
:100DA000696800F00C00B0EB810FEFD1306800F003
:100DB0000700B8420BD9306820F007003843306094
:100DC000306800F00700B84201D00120E5E728783C
:100DD000400705D56068E96820F4E060084360607A
:100DE0002878000706D56068296920F4605040EA39
:100DF000C100606000F028F86168084AC1F303117F
:100E0000515CC8400649086006480068FFF7F8FED4
:100E10000020C2E7002002400010024040220008EB
:100E20000C000020040000200448054900684968BF
:100E3000044AC1F30221515CC84070470C000020F5
:100E400000100240502200080E4A51680E4801F07E
:100E50000C03042B11D0082B0FD10C48C1F3834392
:100E6000C903C05C0AD55168084AC1F34041921ECB
:100E7000515C054A5043B0FBF1F0704704494843C8
:100E8000704700000010024000127A003022000873
:100E900000093D002DE9F84F040070D02078C04DC6
:100EA000C00749D06868C0F38100012807D068688E
:100EB000C0F38100022809D16868C00306D52868FC
:100EC000800339D560680028E7D035E06068B0F568
:100ED000803F0BD010B1B0F5A02F11D0286820F4BE
:100EE00080302860286820F4802002E0286840F4E0
:100EF00080302860606890B1FFF740FB06460AE04A
:100F0000286840F480202860F0E700BFFFF736FB38
:100F1000801B642873D828688003F7D50CE0FFF79E
:100F20002DFB064605E000BFFFF728FB801B642869
:100F3000F0D828688003F7D420789A4E80074FF0C5
:100F400001094FF0000839D5686810F00C0F07D080
:100F50006868C0F38100022809D16868C00306D41C
:100F60002868800714D52069012808D110E020697D
:100F7000B0B1C6F80090FFF701FB074605E00AE1B3
:100F8000FFF7FCFAC01B0228C4D828688007F7D5F1
:100F90002868616920F0F80040EAC10028600DE08F
:100FA000C6F80080FFF7EAFA074604E0FFF7E6FA22
:100FB000C01B022823D828688007F7D420780007B0
:100FC0002CD57948A169D9B1C0F80090FFF7D6FABD
:100FD000074604E0FFF7D2FAC01B02280FD8686A60
:100FE0008007F7D571484FF4FA510068B0FBF1F073
:100FF000009000BF0098411E0091FAD20EE080E000
:10100000C0F80080FFF7BAFA074604E0FFF7B6FA27
:10101000C01B022875D8686A8007F7D4207840077B
:1010200060D5E8690027C00008D4E86940F0805026
:10103000E861E869012700F0805000905C48016891
:10104000C90513D40168834641F480710160FFF73C
:1010500095FA824606E000BFFFF790FAA0EB0A007F
:1010600064284ED8DBF80000C005F5D5E0680128FB
:101070000AD008B1052813D0286A20F001002862A0
:10108000286A20F0040002E0286A40F0010028628B
:10109000E06841F2883B98B1FFF770FA82460BE0B6
:1010A000286A40F004002862EEE700BFFFF766FA06
:1010B000A0EB0A0159455AD8286A8007F6D50CE0FA
:1010C000FFF75CFA824605E0FFF758FAA0EB0A0149
:1010D00059454CD8286A8007F6D41FB1E86920F03A
:1010E0008050E861E06988B36968C1F38101022931
:1010F00044D00228C6F8608004D0FFF73FFA0446C7
:1011000038E034E0FFF73AFA074604E0FFF736FA32
:10111000C01B02282BD828688001F7D4206AB0F5BC
:10112000803F05D16868A16820F4003008436860FA
:10113000D4E908010843696821F474110843686020
:10114000C6F86090FFF71AFA044606E025E000BFF3
:10115000FFF714FA001B022809D828688001F7D588
:101160001BE000BFFFF70AFA001B022802D9032088
:10117000BDE8F88F28688001F4D40EE00128F7D08C
:101180006868226A00F48031914204D1616A00F4F7
:101190007010884201D00120EAE70020E8E7000053
:1011A0000010024000004242800442420C00002035
:1011B0000070004010B5401EB0F1807F01D30120C7
:1011C00010BD4FF0E02460610F21601701F010F8AE
:1011D0000020A06107202061002010BDFEE7000074
:1011E0000148FFF7D3B90000F40200200148FFF7DF
:1011F0002FBA0000F402002038B5406A002190F8B0
:101200003D202B4B46F2A8141B68B3FBF4F3C3EB51
:10121000C30303EB830300933BB15B1E009303689E
:101220001B689B0505D5009BF6E7036C43F0200384
:101230000364436B03B19962836B03B199620368E2
:101240001C6824F480641C604185436B03B15963BE
:10125000836B03B1596303681C6824F001041C60AC
:1012600090F83D402023602C0BD0282434EA020261
:101270000FD080F83D3080F83E1000BFFFF700FB34
:1012800038BD80F83D3080F83E100164FFF77CF9EE
:1012900038BD0268136843F00103136002681368E5
:1012A00043F480631360016380F83D40E6E700008B
:1012B0000C00002000684169C943090601D40021DF
:1012C0000161704770B5044690F83D0094F83E10F7
:1012D000102901D0402906D1222804D121680A68AA
:1012E00022F400620A60282131EA00024FF0000572
:1012F0004FF0200626D021684968090505D46028EA
:1013000003D084F83D6084F83E502563206841682E
:10131000090537D5416821F400614160606B90F8A0
:1013200021203C49012A11D04163606BFEF7D4FFB4
:1013300038B32068016821F00101016084F83D6044
:10134000606B1CE0256384F83D10DFE7A06B416310
:10135000A06BFEF7C1FFA0B120684169C9434906EF
:1013600005D40069616A0870606A401C6062206888
:10137000016821F00101016084F83D60A06B416BC0
:10138000884710E094F83D10602910D04169C943A6
:10139000490605D40069616A0870606A401C606291
:1013A0002046FFF76DFA206CC1071CD115E084F8C8
:1013B0003D6025644169C943490605D40069616AF5
:1013C0000870606A401C60622068016821F00101B9
:1013D00001602046FFF7D8F8E5E7810703D441070D
:1013E00001D4000704D52068416821F4E061416020
:1013F00094F83D00216C49070BD5282809D10648EF
:10140000E062256384F83D6084F83E502046FFF793
:10141000FDFA70BDF91100080000FFFF01684A697C
:10142000D24352050FD46FF480624A61002140F824
:10143000301F202242738173026942F0040202616C
:101440000173012070470020704710B5C26A438DB8
:101450000168042B06D0438D032B08D0438D022B4B
:101460001DD012E04A6822F480624A600CE04B68AA
:1014700023F480634B60042A06D0022A04D001685A
:101480000A6822F480620A6001680969426A117080
:10149000416A491C4162418D491E418510BD012AA6
:1014A00030D0102A2ED0042A30D0022A2ED00A683A
:1014B00042F400720A6001680969426A1170416A67
:1014C000491C4162428D521E4285026812690A70AF
:1014D000416A491C4162418D491E418501684A6843
:1014E00022F440724A60202180F83D1090F83E209E
:1014F0000021402A80F83E100CD012210163FFF732
:1015000086FA10BD0A6822F48062D3E70A6842F4C2
:101510008062CFE70163FFF77CFA10BD38B590F821
:101520003D1022290FD1418D03290DD90168096988
:10153000426A1170416A491C4162418D491E4185D0
:10154000418D032906D038BDC26A022A02D0012982
:1015500006D029B10068416821F48061416038BD3E
:10156000274946F2A81300220968B1FBF3F101EB09
:101570008101009101682023009C641E009422D008
:101580000C68A405F8D40C6824F480640C6001682D
:101590004C6824F4E0644C6001680969446A217075
:1015A000416A491C4162418D491E418580F83D30A8
:1015B00090F83E1080F83E2040291DD01221016392
:1015C000FFF725FA38BD046C44F0200404644C682D
:1015D00024F4E0644C6001680969446A2170416A3E
:1015E000491C4162418D491E418580F83D3080F89B
:1015F0003E20FFF745F938BD0263FFF70AFA38BD10
:101600000C00002010B5C26A90F83D1021290BD1C2
:10161000418D51B1416A026809781161416A491CE2
:101620004162418D491E418510BD20230021082AB9
:1016300013D0202A11D012F5803F0ED002685468D2
:1016400024F4E06454601122026380F83E1080F8B4
:101650003D3000BFFFF7DCF910BD0268546824F488
:10166000E06454600268146844F400741460016318
:1016700080F83D3090F83E2080F83E10402AE9D1B5
:10168000FFF7C8F910BD000010B590F83D1090F8B4
:101690003E30C26A048DB4B1212903D0402B11D150
:1016A00022290FD1418DE1B390F83E10402942D05C
:1016B000416A026809781161416A491C4162418DA1
:1016C000491E418510BD2129E8D120230021082A87
:1016D00013D0202A11D012F5803F0ED00268546832
:1016E00024F4E06454601122026380F83E1080F814
:1016F0003D3000BFFFF78CF910BD0268546824F438
:10170000E06454600268146844F400741460016377
:1017100080F83D3090F83E2080F83E10402AE9D114
:1017200000E002E0FFF776F910BD0068416821F49F
:101730008061416010BDBDE8104000F0F3B80000CA
:1017400078B590F83E50C26A046B90F83D60002373
:101750000168222E73D1066D0EB9402D6FD0056D34
:101760001DB90569B5F5404F1BD0458D95B3468D24
:10177000484D012E20D0448D022C4DD00C6844F4ED
:1017800080640C6001684C68240579D5AA4273D046
:10179000012A71D0082A6FD0102A6DD0202A6BD070
:1017A0006EE04A698A6900920A6842F480720A60AF
:1017B000016D491C016578BDAA4214D10A6822F462
:1017C00080620A6001684A68120504D50A6822F43A
:1017D000806217E0FFE74A698A6900920A6842F46A
:1017E00000720A6050E0082A10D0202A0ED0122C75
:1017F0000AD0042A03D0022A01D0102AE6D10A68AE
:1018000042F480620A603BE0012ADFD00A6822F4D9
:1018100080620A600168DEE7042A11D0022A0FD034
:10182000102A0DD00C6844F400640C6001684C6907
:101830008C6900940C6824F480640C6008E025E056
:101840000C6844F480640C6001684C6989690091FB
:1018500001684C68240517D5AA4207D0012A05D093
:10186000082A03D0102A01D0202A0DD14A6842F458
:1018700080524A6008E0FFE74A6842F480524A60BA
:1018800001684A6989690091036578BD486988697A
:10189000009078BD0000FFFF90F83E10402910D066
:1018A0000169B1F5804F19D0016DA9B3016D01290E
:1018B00010D1416C5FF0F10201F4407142EAD111A4
:1018C00006E0016D0029416C05D0C9B241F001016B
:1018D00000680161704701F0FE01F9E790F83D10E2
:1018E0002129416C09D0C9B241F00101026811619E
:1018F000416B29B1896A49B902E001F0FE01F5E7BF
:10190000816B0029E6D0896A0029E3D0006841682C
:1019100041F4006141607047FFE7416CF02201F43F
:101920004071CBE710B590F83D10026D4AB1026DE1
:10193000012A14D0026D022A16D0BDE81040FFF72C
:10194000B9BCC16C0129816C02D0C1F3072108E048
:101950000268C9B21161016D891C016510BD816CFD
:10196000C9B20268116123E022291CD0428D0AB15C
:10197000212920D0428D002AF0D12129EED1016801
:101980004A6822F4E0624A6001680A6842F4007220
:101990000A6000210163202280F83D2080F83E107B
:1019A000FFF738F810BD01680A6842F480720A60D7
:1019B000016D491CD1E7416A026809781161416AE9
:1019C000491C4162418D491E418510BD2DE9F843F6
:1019D000044600680D46DDE90897016898461646FA
:1019E00041F4807101604B4600224FF00111204606
:1019F000009700F085F948B120680068C00502D55D
:101A00004FF4007020640320BDE8F883216805F0DE
:101A1000FE0008613B464A461549204600F0B8F9E9
:101A200088B920684169806900903A464946204655
:101A300000F00CFA48B1206C042804D12068016839
:101A400041F4007101600120DEE7F5B2B8F1010F49
:101A500009D02168300A08613A464946204600F01C
:101A6000F5F90028E7D1206805610020CCE70000E7
:101A70000200010038B50C4690F83D2000212825D1
:101A8000954302680B4605D051699169009180F831
:101A90003C3038BD556825F480655560E2435407F5
:101AA00000D50121120601D5828900E0028B80F861
:101AB0003C3092B2FEF769FD38BD00002DE9F041DF
:101AC00090F83D300446C26A002120261E4F00686F
:101AD0006FF48065082A01D0202A01D1282B04D078
:101AE000212B17D04561BDE8F081E762426822F4FE
:101AF000E0624260206845612068026822F48062EA
:101B00000260216384F83D6084F83E102046FEF7B1
:101B10007DFFE8E7E7622122226384F83D6084F8D4
:101B20003E10416821F4E061416020684561206811
:101B3000016821F4806101602046FFF7BBFB20466D
:101B4000FFF743F8CFE700000000FFFFF8B590F87B
:101B50003D6004460068416821F4E061416020680E
:101B6000002541690091016841F001010160206890
:101B7000016821F48061016020684168090520D571
:101B8000474F222E48D02A2E46D0616B09684968FB
:101B90006185618D19B1216C41F0040121644168B6
:101BA00021F400614160606BFEF7E2FB012808D080
:101BB000606B4763606BFEF78FFB10B1606B416B2E
:101BC0008847608D08B320684169C943490708D434
:101BD0000069616A0870606A401C6062608D401E26
:101BE000608520684169C943490608D40069616A73
:101BF0000870606A401C6062608D401E6085608D68
:101C000018B1206C40F004002064206C00B3204622
:101C1000BDE8F840FFF756BBA16B096849686185CC
:101C2000618D19B1216C41F004012164416821F4F6
:101C300000614160A06BFEF79BFB0128C1D0A06B47
:101C40004763A06BFEF748FB0028BAD0A06BB6E74D
:101C50002A2E06D12563282084F83D002046FEF771
:101C6000B3FF94F83D10202028290DD0216B2229A4
:101C700001D0222E07D1256384F83D0084F83E5020
:101C80002046FEF7A1FFF8BD0649E162256384F80E
:101C90003D0084F83E502046FEF7B8FEF8BD000037
:101CA000F91100080000FFFF70B516460D46044606
:101CB0001EE02046FFF7B2FB08B1012070BD681C92
:101CC00016D0FEF75BFC801BA84200D885B92068BF
:101CD0004069C04340070BD5002044F8300F202155
:101CE0006173A073216941F0200121612073E4E751
:101CF00020684069C0434007DBD4002070BD00006D
:101D00002DE9F047984617460D460446C1F30746AD
:101D1000DDF820902AE000BFB8F1FF3F26D0FEF7A3
:101D20002DFCA0EB0901414502D8B8F1000F1DD1EF
:101D30002068012E16D0806925EA00000004000CFE
:101D400012D00020B84211D1002044F8300F2021D9
:101D50006173A073216941F020012161207301208A
:101D6000BDE8F0874069E7E70120EBE72068012E36
:101D70000AD0806925EA00000004000C06D000208B
:101D8000B842C9D00020EBE74069F3E70120F7E74C
:101D90002DE9F047984616460D4604464FF00009D7
:101DA0004FF0200AC1F3074723E020684069C04391
:101DB000400515D42068016841F400710160216874
:101DC0006FF480604861C4F8309084F83DA084F8D6
:101DD0003E90216C41F00401216484F83C9021E0A4
:101DE000701C06D0FEF7CAFBA0EB0800B04203D877
:101DF00016B1012F1FD021E02068012F15D0806976
:101E000025EA00000004000C18D000BF44F8309F01
:101E100084F80DA084F80E90216941F02001216121
:101E200084F80C900120BDE8F087406925EA0000A5
:101E30000004000CEAD12068406901E02068806954
:101E400025EA00000004000CAFD1ECE770B516469F
:101E50000D4604461EE02046FFF7E0FA08B10120D7
:101E600070BD681C16D0FEF789FB801BA84200D805
:101E700085B920684069C04300060BD5002044F8AE
:101E8000300F20216173A073216941F0200121618D
:101E90002073E4E720684069C0430006DBD40020DB
:101EA00070BD00000D4808B5816941F020018161D5
:101EB000816901F020010091816941F0080181618F
:101EC000816901F008010091816941F0040181619B
:101ED000806900F00400009008BD0000001002407E
:101EE0000D4810B50B4901600C49416000214FF4C9
:101EF00080428160C0E9031241618161C161016278
:101F0000FEF7C0FC002803D0BDE81040FEF7E1B9A1
:101F100010BD000000580040F4020020A08601001F
:101F2000FEE7FEE770B5002404F1B000C0B200F097
:101F30007FF8002000F07CF8102000F079F80025F0
:101F4000002000F087F86D1CEDB2802DF8D3641CE2
:101F5000E4B2082CE8D370BD10B58D2000F068F80D
:101F6000142000F065F8BDE81040AF2000F060B824
:101F700010B54FF4FA70FEF7FFF9BDE8104000F01D
:101F8000B0B810B50446B031C8B200F051F8102016
:101F900040EA141000F04CF804F00F00BDE81040C7
:101FA00000F046B82DE9F047814600260C4609EBC3
:101FB000020701EBD308DDF820A010E021464846D7
:101FC000FFF7DFFF4D4606E01AF80600761C00F02A
:101FD00041F86D1CEDB2AF42F6D8641CE4B2A045E6
:101FE000ECD8BDE8F08700002DE9F04115460E461B
:101FF0000746FFF7C6FF0D48002400EB4515285D96
:1020000000F028F8641CE4B2102CF8D3761CF1B26E
:102010003846FFF7B6FF00242819007C00F01AF8B4
:10202000641CE4B2102CF7D3BDE8F081100000204E
:1020300001B584B001214FF4807204A88DE8070037
:102040000B46002278210248FEF7E6FC05B000BDF1
:10205000F402002001B584B001214FF4807204A87D
:102060008DE807000B46402278210248FEF7D4FC99
:1020700005B000BDF402002070477047FEF7A6BD12
:1020800030B58FB028216846FEF7BEF814210AA8A3
:10209000FEF7BAF801210804CDE9001000240294EB
:1020A00002250491CDE907504FF4E01009906846ED
:1020B000FEF7F0FE08B172B6FEE70F20CDE90A0583
:1020C0004FF48060CDE90C4002210AA80E94FEF77F
:1020D00015FE002801D072B6FEE70FB030BD704784
:1020E000FEE710B5AE20FFF7A3FF2020FFF7A0FF0B
:1020F0000220FFF79DFF0020FFF79AFF1020FFF757
:1021000097FF4020FFF794FF8120FFF791FFCF203A
:10211000FFF78EFFA120FFF78BFFC820FFF788FF96
:10212000A620FFF785FFA820FFF782FF3F20FFF7DB
:102130007FFFD320FFF77CFF0020FFF779FFD5203A
:10214000FFF776FF8020FFF773FFD920FFF770FFBE
:10215000F120FFF76DFFDA20FFF76AFF1220FFF78B
:1021600067FFDB20FFF764FF4020FFF761FF8D2052
:10217000FFF75EFF1420FFF75BFFA420FFF758FF77
:10218000FFF7D0FEBDE81040AF20FFF751BF0000C1
:1021900038B51825FFF7E0FEFFF7C4FE12483223DA
:1021A00000901A4600212720FFF7FCFE0424224657
:1021B00006212846FFF718FF1035EDB2082C00D194
:1021C0001825641CE4B2082CF1D94FF47A70FEF79C
:1021D000D3F8FFF7A7FE0548192300901A460021FF
:1021E0003420FFF7DFFE38BD300100208E020020D2
:1021F0000907090E002804DB00F1E02080F8001434
:10220000704700F00F0000F1E02080F8141D7047C7
:10221000FEF7E4FCFFF7ACFEFFF732FFFFF742FEEC
:10222000FFF75EFEFFF798FEFFF7B2FFFEE7010241
:1022300002030405060708090A0B0C0D0E0F101007
:102240000000000000000000010203040607080966
:1022500000000000010203047822000800000020B2
:10226000F40200002801000810240008F4020020F5
:10227000B406000084010008320182101324F4180F
:10228000098040301E101010FF041901212C40401D
:1022900042013A7F064340404BFE820172FE4BFFF3
:1022A000400152FF12E0300BFF1020080808FF0821
:1022B00008F8196012FF280B8141310D030D3141DF
:1022C000818121300C9C848484F48282838280808A
:1022D00020082010080640807F1D020408308C145E
:1022E00060028C100BFE02F2525A565252F2023029
:1022F0001004047E41300F201349817F010913200F
:102300001AC06B1B7F480124C80808280880403782
:1023100004041464031C0710E0401E10D0FF90104A
:10232000423B0202A01B0403803483601F153F4020
:102330004078101080809E9292929EE0809EB2D251
:10234000929E8010080808F4949292F11F01F29274
:102350009494F8515174C03FC037804020100C0352
:102360002E030C102040B101161CF0FCF09839012E
:102370006AC03C011A1809E0F87E9FCFC3C1E00192
:10238000061D9008080201AE80E0F8FEFF010C1A5D
:10239000FEFCE0631CFCFBFD3049332AFB2F3AFDB9
:1023A0000A0319FEFEBE01071F3F7F632FFFFF7F59
:1023B0003F1F0FF8091493147878201A08393D0349
:1023C000C3E303015AF3C48CE0C0788949012A7C35
:1023D00003E9E3131C08300B80C0C0C4E8E0E0C18F
:1023E000CD80E3041CE009E0F09E88C08020185BEB
:1023F000E8FC9EC4FEF8F0280EC043070F1F9F1F85
:102400001F1F4F0703014FF1230E4019AF7100004A
:04000005080000ED02
:00000001FF
