:020000040800F2
:10000000E80600208901000891010008930100081A
:100010009501000897010008990100080000000000
:100020000000000000000000000000009B0100082C
:100030009D010008000000009F010008A1010008C8
:10004000A3010008A3010008A3010008A301000800
:10005000A3010008A3010008A3010008A3010008F0
:10006000A3010008A3010008A3010008A3010008E0
:10007000A3010008A3010008A3010008A3010008D0
:10008000A3010008A3010008A3010008A3010008C0
:10009000A3010008A3010008A3010008A3010008B0
:1000A000A3010008A3010008A3010008A3010008A0
:1000B000A3010008A3010008A3010008A301000890
:1000C000A3010008A3010008A3010008A301000880
:1000D000A3010008A3010008A3010008A301000870
:1000E000A3010008A3010008A301000800F002F822
:1000F00000F03AF80AA090E8000C82448344AAF188
:100100000107DA4501D100F02FF8AFF2090EBAE885
:100110000F0013F0010F18BFFB1A43F0010318473B
:100120008C030000AC030000103A24BF78C878C1EB
:10013000FAD8520724BF30C830C144BF04680C60ED
:10014000704700000023002400250026103A28BF35
:1001500078C1FBD8520728BF30C148BF0B60704739
:100160001FB51FBD10B510BD00F031F81146FFF7E7
:10017000F7FF00F081F900F04FF803B4FFF7F2FF4A
:1001800003BC00F057F800000948804709480047C1
:10019000FEE7FEE7FEE7FEE7FEE7FEE7FEE7FEE737
:1001A000FEE7FEE704480549054A064B7047000094
:1001B00041030008ED000008E8000020E8060020E8
:1001C000E8020020E802002070477047704775463B
:1001D00000F02CF8AE4605006946534620F00700B3
:1001E000854618B020B5FFF7DDFFBDE820404FF091
:1001F00000064FF000074FF000084FF0000B21F011
:100200000701AC46ACE8C009ACE8C009ACE8C009DD
:10021000ACE8C0098D46704710B50446AFF30080C6
:100220002046BDE81040FFF7A8BF00000048704717
:100230008800002001491820ABBEFEE7260002001E
:10024000704700001F4A126842F480321D4B1A604A
:1002500000BF1C4A126802F40032002AF9D0194A81
:10026000526842F48062174B5A60174A126842F093
:100270000202154B1A60134A526842F48032114B45
:100280005A60821ED0B21A46526842EA80425A60D0
:100290001A46126842F080721A6000BF094A12685A
:1002A00002F00072002AF9D0064A526842F00202B7
:1002B000044B5A6000BF034A526802F00C0108293F
:1002C000F9D1704700100240002002400146002290
:1002D0004FF0E0239A614FF47A724A435A611A460A
:1002E000126942F001021A6100BF4FF0E02210696A
:1002F00000F001021AB100F48032002AF5D04FF06C
:10030000E022126922F001024FF0E0231A6100227C
:100310009A6170470848806940F01000064988617A
:100320000648406820F47000044948600846406868
:1003300040F4401048607047001002400010014037
:100340007047000010B51348006800F02000F8B1B5
:100350001048001D0068C4B20F4800687F2816D2FC
:100360000D490868411C0C4A11600C490C540D2CB5
:1003700003D00A2C01D0302C09D100210748064AAD
:100380001268815400F05CF800200349086000BF47
:1003900010BD0000003801400000002008000020CF
:1003A0002448806940F0040022498861224800689E
:1003B00020F0F000204908600846006840F0B000D6
:1003C00008600846006820F470600860084600680D
:1003D00040F4806008601748806940F48040154907
:1003E000886140F2712015490860081D00680020EE
:1003F000091D0860081D006820F44050091D0860B0
:10040000081F00680020091F08600846006840F0C7
:10041000080008600846006840F0040008600846CC
:10042000006840F0200008600846006840F4005072
:10043000086070470010024004080140083801407D
:10044000014600BF0B4A126802F08002002AF9D070
:1004500000200BE00A5C074B1B1D1A6000BF054A19
:10046000126802F04002002AF9D0401C0A5C002AFF
:10047000F0D170470038014009A40920FFF7E2FEDF
:10048000FFF78EFFFFF746FF08E02046FFF7D8FF93
:1004900042F22830FFF71AFFFFF754FFF5E700009C
:1004A00068656C6C6F210D0A00000000CC04000828
:1004B000000000200800000028010008D404000803
:1004C00008000020E00600004401000800000000D1
:0404D0000000000028
:04000005080000ED02
:00000001FF
